:020000040800F2
:1000000000040020B9010008BB010008BB01000882
:10001000BB010008BB010008BB010008BB010008D0
:10002000BB010008BB010008BB01000889DA000819
:10003000BB010008BB010008BB010008E7EE000897
:10004000BB010008BB010008BB010008BB010008A0
:10005000BB010008BB010008D9EB000801EC000857
:1000600029EC000851EC000879EC0008BB010008FD
:10007000BB010008BB01000881F50008BB010008B6
:10008000A1EC0008BB010008BB010008BB0100088F
:10009000BB010008BB010008BB010008BB01000850
:1000A000BB010008BB01000895F10008A9F1000898
:1000B000BB010008BB010008BB010008BB01000830
:1000C00005EF000805ED0008BB010008BB010008B2
:1000D000BB010008BB010008BB010008BB01000810
:1000E00072B6264880F30888254880F30988254899
:1000F00025490860022080F31488BFF36F8F0DF04C
:10010000F7F90CF0AFFD4FF0553020491B4A9142F2
:100110003CBF41F8040BFAE71D49194A91423CBF24
:1001200041F8040BFAE71B491B4A1C4B9A423EBF9D
:1001300051F8040B42F8040BF8E700201849194A5B
:1001400091423CBF41F8040BFAE70DF0D5F90DF0F0
:10015000D0F9154C154DAC4203DA54F8041B88470E
:10016000F9E707F005FD124C124DAC4203DA54F8E2
:10017000041B8847F9E70DF0BDB90000000400201A
:10018000000C00200000000808ED00E00000002046
:1001900000040020580E0108000C0020201500204B
:1001A0002015002008470020E0000008E0000008BB
:1001B000E0000008E000000892E700F000F8FEE729
:1001C0002DE9F04FC1F80CD0C3689D46BDE8F08F13
:1001D000002383F311882846A04700200DF05AFB26
:1001E000FEE70DF0B1FA00DFFEE7000053B94AB9AF
:1001F000002908BF00281CBF4FF0FF314FF0FF302F
:1002000000F00CB8ADF1080C6DE904CE0FF093FCD2
:10021000DDF804E0DDE9022304B07047704700BF59
:10022000062008B500F00EFA01200EF057FB00BFC3
:1002300038B5124B04461D682A6B1AB10023C2E977
:10024000044338BD182000F079FB0246286378B1DA
:1002500000210B2301209381C2E90401084B0949C5
:10026000094DC2E9011300231560C2E9044338BDFA
:100270004621064B064800F03BFB00BF000C002067
:10028000ECDE050034126DE60E33CDAB800D0108B7
:10029000980D010838B5194B1C68226B8AB1136997
:1002A0001749546903FB01F1164800FB0411A3FB35
:1002B0000030013341EB0001C2E9043121F000407C
:1002C00038BD182000F03AFB0246206388B10124B3
:1002D00000250B230A480C49C2E904451160014678
:1002E0000A4D0B4C93810B4BC2E90154C2E9043116
:1002F00038BD5221084B094800F0FAFA000C0020E2
:100300002DF451582D7F954C0E33CDAB34126DE644
:10031000ECDE05002E7F954C800D0108980D01083C
:10032000032A30B415D941EA0004A40784460B46D9
:1003300004D0541E0FE0043A032A08D91946604637
:1003400053F8044B5CF8045BA542F4D0F1E7604637
:100350001946541E7AB1431E0139021901E09A422E
:1003600009D013F8010F11F801CF6045F7D0A0EBC9
:100370000C0030BC7047002030BC704788420ED95A
:100380008B1883420BD900EB020C002A6DD0624619
:1003900013F801CD994202F801CDF9D170470F2A27
:1003A0000FD8034602F1FF3C002A5ED00CF1010C8D
:1003B000013B8C4411F8012B614503F8012FF9D161
:1003C000704740EA01039B0750D1A2F1100370B5BA
:1003D00001F1200C23F00F0501F1100E00F11004C3
:1003E000AC441B095EF8105C0EF1100E44F8105C72
:1003F0005EF81C5C103444F81C5C5EF8185C44F831
:10040000185C5EF8145CE64544F8145CEAD10133EC
:1004100012F00C0F01EB031102F00F0400EB0313B9
:1004200028D08E46043C24F003064FEA940C1E4468
:100430001C1F5EF8045B44F8045FB442F9D10CF170
:10044000010402F0030203EB840301EB840102F1D7
:10045000FF3C4AB10CF1010C013B8C4411F8012B1B
:10046000614503F8012FF9D170BD7047034602F1D1
:10047000FF3C9BE72246EAE770B5860747D0541E4B
:10048000002A3ED00346CAB201E0013C39D303F84A
:10049000012B9D07F9D1032C2CD9CDB205EB0525F5
:1004A0000F2C1A4605EB054534D9A4F1100C2CF09D
:1004B0000F0603F1100EB6444FEA1C1CC2E90055AA
:1004C000C2E9025510327245F8D10CF1010214F064
:1004D0000C0F03EB021204F00F0C13D0ACF1040369
:1004E00023F003030433134442F8045B9342FBD12B
:1004F0000CF003042CB1C9B21C4403F8011BA34245
:10050000FBD170BD64461346002CF4D1F9E70346D5
:100510001446C0E7A446E1E738B5C46B0CB100202F
:1005200038BD8021054600F03FFA0246E86330B14D
:10053000031F7C3243F8044F9342FBD1EFE74FF0A7
:10054000FF3038BD30B51F29054683B008D8C36BCE
:100550000C4653B153F8240043F8242003B030BDB7
:10056000162303604FF0FF30F8E78021019200F07E
:100570001BFA019A0346E8630028F3D0011F00F13B
:100580007C05002041F8040FA942FBD1E2E700BF3F
:100590001F2938B505461ED8C26B0C466AB152F801
:1005A000213053B1012B06D0591C10D00021204618
:1005B00042F824109847002038BD284600F0F2F891
:1005C000224601462846BDE8384000F0D7B8162339
:1005D00001202B6038BD16234FF0FF302B6038BD53
:1005E0001F292BD838B5C36B0C460546A3B153F869
:1005F000242003EB84034AB1511C0BD0012A07D0FD
:10060000002520461D609047284638BD012038BD92
:10061000032038BD022038BD802100F0C5F9034613
:10062000E86340B100201A1F03F17C0142F8040F77
:100630008A42FBD1DBE74FF0FF3038BD4FF0FF308F
:10064000704700BF38B5134B1F281D681DD8EA6BD3
:10065000044662B152F820304BB1012B05D0591C31
:100660000FD0002142F820109847002038BD2846BE
:1006700000F098F8224601462846BDE8384000F0D0
:100680007DB8162301202B6038BD16234FF0FF30B4
:100690002B6038BD000C0020114B1F2870B51E6860
:1006A00008D8F36B04460D464BB153F8240043F8C9
:1006B000245070BD162333604FF0FF3070BD802191
:1006C000304600F071F90346F0630028F4D00021B1
:1006D000021F7C3042F8041F8242FBD1E5E700BFD5
:1006E000000C002038B50B4B1D68EC6B0CB10020E2
:1006F00038BD8021284600F057F9E86338B1031F60
:1007000000F17C0243F8044F9342FBD1EFE74FF036
:10071000FF3038BD000C002038B5174B1F281D686E
:1007200026D80446E86BA0B150F8242000EB8403DF
:100730004AB1511C0BD0012A07D0002520461D606C
:100740009047284638BD012038BD032038BD02201F
:1007500038BD8021284600F027F9E86340B1002128
:10076000031F00F17C0243F8041F9342FBD1DBE737
:100770004FF0FF3038BD00BF000C002070B50026E0
:10078000074D0446084611462E600EF0AFF8431C94
:1007900000D070BD2B68002BFBD0236070BD00BF64
:1007A000281500200EF0AAB8844641EA000313F091
:1007B000030349D1403A23D30B6803604B6843607D
:1007C0008B688360CB68C3600B6903614B694361CD
:1007D0008B698361CB69C3610B6A03624B6A4362B5
:1007E0008B6A8362CB6AC3620B6B03634B6B43639D
:1007F0008B6B8363CB6BC36340304031403ADBD2B9
:1008000030320BD30B6803604B6843608B688360A6
:10081000CB68C36010301031103AF3D20C3205D3DC
:1008200051F8043B40F8043B043AF9D2043208D0B2
:10083000D2071CBF11F8013B00F8013B01D30B8824
:1008400003806046704700BF082A13D38B07B1D0DE
:1008500010F00303AED0C3F10403D21ADB071CBFB0
:1008600011F8013B00F8013BA4D331F8023B20F81A
:10087000023B9FE7043AD9D3013A11F8013B00F853
:10088000013BF9D20B7803704B7843708B788370FF
:100890006046704720F0030110F00300C0F1000033
:1008A00051F8043B00F1040C4FEACC0C6FF000024D
:1008B0001CBF22FA0CF213434FF0010C4CEA0C2C33
:1008C0004CEA0C4CA3EB0C0222EA030212EACC1213
:1008D00004BF51F8043B0430F4D0C2F1000102EA35
:1008E0000102B2FA82F2C2F11F0200EBD20070479D
:1008F000144600B51A460A4B0D461B6885B0DE68E3
:1009000003464CB1074901913046074902940095CE
:1009100000F0E4F8FFF784FC04490C46F3E700BF5D
:10092000000C0020D40D0108E40D0108E00D0108C1
:1009300008B513460022FFF7DBFF00BF024B01465C
:10094000186800F031B800BF000C0020024B0146CF
:10095000186800F0EBB800BF000C002070B5114E15
:10096000054633680C46BBB1214628460DF09AFF78
:10097000431C01460CD0C41C24F00304A04205D043
:100980002846611A0DF08EFF013001D0204670BD5F
:100990004FF0FF34204670BD19460DF083FF3060E4
:1009A000E2E700BF201500202DE9F843CD1C25F01B
:1009B000030508350C2D38BF0C25002D064618DB25
:1009C000A94216D8DFF8DC8000F06EF8D8F80420D1
:1009D000A2B1144603E0636822467BB11C4623683B
:1009E0005B1BF8D40B2B1FD89442636854D0536020
:1009F0000CE00C2333600020BDE8F8832946304624
:100A0000FFF7ACFF431C044619D00560304600F0E8
:100A100051F804F10B00231D20F00700C21A1CBF7F
:100A20001B1AA350BDE8F88361199442256014BFD6
:100A30005160C8F80410635163684B60E6E7D8F86A
:100A400004701FB33C467F68002FFBD123683946F2
:100A5000304604EB03090DF025FF814516D12368CC
:100A60003046ED1A2946FFF779FF01300ED0236892
:100A7000D8F804202B442360536883B1A34203D0E9
:100A80001A465B689C42FBD10023B0E70C2330463A
:100A9000336000F00FF8AEE7C8F80430B6E7C8F8E6
:100AA0000470B3E720150020014800F035B800BFFE
:100AB0003C150020014800F037B800BF3C1500206D
:100AC0000CB400B583B004AB53F8042B019300F0D1
:100AD000C7F803B05DF804EB02B070470EB400B580
:100AE000074A82B003AB0146106853F8042B019308
:100AF00000F0B6F802B05DF804EB03B0704700BF39
:100B0000000C0020704700BF704700BF704700BF57
:100B1000704700BF704700BF704700BF012070479B
:100B200001207047704700BF704700BF002950D0B8
:100B300038B551F8043C0C1F002BB8BFE41805462B
:100B4000FFF7B2FF274A13682BB1A3420CD92168E3
:100B5000601883422CD0284663601460BDE838409A
:100B6000FFF7A8BFA3420FD81A465B68002BF9D144
:100B700011685018844217D02CD363605460284603
:100B8000BDE83840FFF796BF11685018A04214D056
:100B900020D8216860188342EFD118685B68084448
:100BA000C4E900035460EAE723680B441360E6E7F6
:100BB00018685B6808442060CDE72068014450183D
:100BC00083421160DBD1D3E900040144C2E900147F
:100BD000D5E770470C2328462B60BDE83840FFF767
:100BE00069BF00BF241500209368013B002B936070
:100BF00005DAD2F818C0634507DB0A2905D0136867
:100C0000581C106008461970704700F0B5BE00BF50
:100C10009BB1F8B5134406460F46541E5D1E01E015
:100C2000AC4208D03A46304614F8011FFFF7DCFF0B
:100C3000431CF5D1F8BD0020F8BD0020704700BF6F
:100C4000936810B514461BB918460023636010BDA5
:100C500000F0B0FC0023A3600023636010BD00BF60
:100C60002DE9F04FA1B08B4691461C46049018B177
:100C7000036A002B00F04181DBF86420BBF90C30E3
:100C8000D20702D49F0540F131811E0740F19A80BE
:100C9000DBF81030002B00F09580002343F2200297
:100CA0000D9399F800300127954E0794ADF839203F
:100CB000002B77D04D4604E015F8013F002B00F0E3
:100CC0009780252BF8D1B5EB090A40F094802B785A
:100CD000002B67D000234FF0FF320135CDE9092307
:100CE00008930B938DF863301E9306E02546089B0E
:100CF000801B07FA00F0034308932C46052214F8E2
:100D0000011B304600F0E8FEA1460028EED1089B0A
:100D1000D80644BF20228DF86320190748BF2B2234
:100D2000297848BF8DF863202A297AD1079A11685B
:100D3000043200290792C0F2AD800B9169782E2908
:100D400000F086806F4C0322204600F0C5FE38B1CB
:100D50004022089B001B8240134309F101090893BC
:100D600019F8011B062268488DF8381000F0B4FE0F
:100D7000002800F09580654B002B7ED007A90091DC
:100D80005A460498624B08A9AFF300800390039B76
:100D9000013307D00D9B039A13440D9399F800304B
:100DA000002B87D1DBF8643013F0010FBBF80C3057
:100DB00002D19A0540F193805B0616D40D9821B0BC
:100DC000BDE8F08F5946049800F024FE00283FF457
:100DD00064AFDBF86430DD0707D4BBF80C309C054A
:100DE00003D4DBF85800FFF79FFE4FF0FF30E6E733
:100DF000B5EB090AD6D009F1FF3805954546DDF86F
:100E0000108001E0A2453FD92C465A46404615F8CD
:100E1000011FFFF7E9FE02340130A4EB0904F1D110
:100E2000C0E7A1F13002092A88BFA94687D80B9BE9
:100E300000E00134217803EB830302EB4303A1F1CB
:100E40003002092AF5D92E29A1460B937FF47AAFF7
:100E500099F801102A292DD1079B09F102001A687F
:100E60000433002A0793B8BF4FF0FF3399F80210FC
:100E700009928146B8BF099364E7079B073323F0C3
:100E800007030833079385E70D99059D51442B7897
:100E90000D911DE7494243F002030B9108934DE782
:100EA00007A900915A460498194B08A900F0D2F8F6
:100EB00003906CE70023A1F13002092A09F101092E
:100EC00009933FF63FAF19F8011F03EB830302EBD1
:100ED0004303A1F13002092AF5D9099332E7DBF87F
:100EE0005800FFF721FEBBF80C3065E7DBF858002F
:100EF000FFF712FEBBF90C30C7E600F00BFBBBE6B8
:100F0000140E01081C0E0108200E0108000000004C
:100F1000110C00088C4600B586461346034A7146FC
:100F200010685DF804EB6246FFF79ABE000C0020E3
:100F30002DE9F84F92461F460A698B680C469A4283
:100F4000B8BF1A46CAF8002091F843300646DDF8CB
:100F5000289013B10132CAF80020226891065FD5AB
:100F6000DAF800300233CAF80030226812F0060FB7
:100F700011461DD1E1689942D8BF114618DD4FF0E6
:100F8000000804F1190B05E0E568DAF80030ED1A05
:100F900045450CDD01235A4639463046C8470130E5
:100FA00008F10108F0D14FF0FF30BDE8F88F21685B
:100FB00094F84330003B18BF01238A060AD530213C
:100FC000E21882F8431094F845105A1C2244023368
:100FD00082F843103946304604F14302C8470130D5
:100FE000E1D0D4E902202368DAF8005003F00603C8
:100FF000042B21691BD08A4220DD4FF00008521AD1
:10100000904400251A3401E0454517DA01232246B1
:1010100039463046C847013005F10105F4D1C2E731
:1010200012F0060F0DD0003B18BF0123D2E7401B82
:101030008A4220EAE078E2DC0028E2DC0020BDE819
:10104000F88FE168DAF800309942D8BF114696DC93
:10105000AEE700BF2DE9F04717460A7E84B00C4684
:10106000064698460C9D01F1430C002A35D0A2F1AA
:101070005803D9B2202969D8202B67D8DFE813F0AC
:10108000E6006600660066006600660066006600B0
:10109000660066006600AC007000660066006600D0
:1010A000660070006600660066006600210083002E
:1010B000C60066006600B600660083006600660033
:1010C000EC002B682268181D6169286010061B68F7
:1010D00002D4520600F1E08019600023E14623614A
:1010E0003B4621463046CDF8008003AAFFF720FF9B
:1010F000013020D04A46394630462369C047013086
:1011000019D02368E0689B07DDF80C9018D5484596
:1011100016DD002504F1190A04E0E068A0EB0903DC
:10112000AB420DDD0123524639463046C0470130FF
:1011300005F10105F1D14FF0FF3004B0BDE8F087B3
:101140004845B8BF484604B0BDE8F087012084F8A0
:10115000422004F142090023206184F84330BFE7B4
:101160002A682368111D1806296002D4590600F167
:1011700095801068014600286268C0F293804FF0A5
:101180000A0E534815E020682B6810F0800F53F8C2
:10119000041B02D1400648BF89B26F2A14BF4FF02A
:1011A0000A0E4FF0080E4A482B600023626884F84C
:1011B0004330002AA26051DB236823F0040323603C
:1011C00000294BD1002A7BD1E146BEF1080F56D051
:1011D000ACEB0903236183E72A680120116804321C
:1011E0002A6004F1420984F84210B4E72B68002118
:1011F0001A1D2A60D3F800906268484600F06CFC23
:10120000002863D0A0EB09006060A4E7236843F0E6
:101210002003236078222F4884F845202A6813F0A1
:10122000800F52F8041B03D113F0400F18BF89B28E
:101230002A60DA0744BF43F02003236019B923680A
:1012400023F0200323604FF0100EAEE75823204810
:1012500084F845302368E1E72368DBE77546E1461B
:10126000B1FBF5F30A4605FB131A194610F80A30CC
:10127000AA4209F8013DF3D2BEF1080FA8D12368B4
:10128000DD07A5D5626823699A42A1DC302309F104
:10129000FF3989F800309BE719801EE7B2F900108A
:1012A000084668E72D20002AA26084F8430002DB8C
:1012B00023F0040323600A250548AE464942CEE7E1
:1012C000037804F1420984F842307EE7606842E71F
:1012D000280E01083C0E0108024A0349034800F0A9
:1012E000DFBA00BF500C0020E91C0008040C0020ED
:1012F0000C4B416810B59942044601D000F0F4FC53
:10130000A168094B994202D0204600F0EDFCE1684B
:10131000064B994204D02046BDE8104000F0E4BCE2
:1013200010BD00BF4C150020B41500201C16002075
:1013300008B54B6EDA0702D48B899B0501D50020D6
:1013400008BD886DFFF7E8FB002008BD08B54B6EAF
:10135000DA0702D48B899B0501D5002008BD886D72
:10136000FFF7E2FB002008BD2DE9F8430025042328
:10137000304C3149DFF8C490DFF8C480314F324E31
:101380000822C4F8381104F15C002946C4E9033589
:10139000C4E90055C4E90555A5606566FFF76CF81A
:1013A00004F15800C4E90849C4E90A872663FFF735
:1013B000ABFB264B2946082204F1C4006367C4E94D
:1013C0001A55C4E91E552567C4F8CC50C4F880509E
:1013D000FFF752F804F1680304F1C000C4F8883044
:1013E000C4E92398C4E92576FFF78EFB184B2946FC
:1013F00004F596700822C4F8DC30C4E93455C4E919
:101400003855C4F8D850C4F83451C4F8E850FFF740
:1014100033F804F1D003C4E93E87C4F8F49004F52E
:101420009470C4F80061C4F8F030BDE8F843FFF7E9
:101430006BBB00BF4C150020D9120008E51800084E
:101440000D1900084D190008711900080900010064
:1014500012000200F8B506462A48FFF75DFB2A4B4A
:10146000D3F83831002B43D0284FD7E90134013B62
:1014700004D524E05A1C04F1680420D0B4F90C50BF
:10148000013B002DF6D1224B04F15800E360656664
:10149000FFF73AFB1B48FFF747FB08222946C4E940
:1014A0000155C4E904552560A56104F15C00FEF70F
:1014B000E3FFC4E90D55C4E912552046F8BD3D6867
:1014C0000DB12F46D1E74FF4D6713046FFF76CFAD5
:1014D000044680B104230560294625460C304FF4AC
:1014E000D072A0606360FEF7C7FF3C602F46BCE788
:1014F000FFF73AFFB8E703483C60FFF715FB0C2302
:101500003360DAE7481500204C150020500C00200D
:101510000100FFFF10B504460B48FFF7FDFA236AF0
:101520002BB90A4B0A4AD3F83831226223B1BDE8FD
:1015300010400548FFF7F8BAFFF716FFBDE8104066
:101540000148FFF7F1BA00BF481500204C150020F4
:10155000F11200080148FFF7DFBA00BF481500206C
:101560000148FFF7E1BA00BF4815002008B505485B
:10157000FFF7D2FABDE808400020034A034900F013
:101580008FB900BF48150020500C0020311300080F
:1015900008B50020044A054900F082F9BDE808407A
:1015A0000348FFF7C1BA00BF500C00204D130008DC
:1015B000481500209368002B00F0F0802DE9F04FD3
:1015C000B1F90CC090461CF0080F81460C4683B060
:1015D0002BD00B694BB31CF00207D8F8006032D057
:1015E0004FF0000A5546D4F828B0216AAB4FC5B178
:1015F000BD422B46524628BF3B464846D8470028A6
:1016000040F3C280D8F8083082441B1A2D1AC8F85B
:101610000830002B00F0AE80D4F828B0216A002DED
:10162000E6D1D6E900A50836E1E72146484600F0B4
:10163000F1F9002840F0AD80B4F90CC0D8F8006092
:101640001CF00207CCD11CF0010A63D15746236875
:10165000A16818468B46002F58D01CF4007F00F07C
:10166000B180B9420A4600F2DD801CF4906F2FD0A1
:10167000216962695D1A02EB420202EBD2726B1CB5
:1016800052103B44934292BF93469B461A461CF429
:10169000806F00F0E68011464846FFF785F9002884
:1016A00000F0F5802A4621690190FFF77DF8A289B4
:1016B000019B22F4906242F08002A2815819C4F882
:1016C00014B0ABEB05053A46BB462361A56020602C
:1016D0003D46002751460192FEF750FEA16823685F
:1016E000019AA1EB0B011A44A1602260D8F80830DE
:1016F000AA445B1BC8F80830002B3BD02368A168C4
:1017000018468B46B4F90CC0002FA6D1D6E900A725
:1017100008369EE73846BB463D46002D40D000289F
:1017200045D03A46D4E904C32068AA4228BF2A46D5
:101730006045A16804D901EB030A524500F3828099
:10174000934272DC5A464846216AD4F828C0E047E2
:10175000B0F1000A18DDB7EB0A070FD00120D8F866
:101760000830D344A3EB0A03A5EB0A05C8F80830F8
:10177000002BD2D1002003B0BDE8F08F21464846AF
:1017800000F0B2FA0028EAD0B4F90C3043F040037C
:10179000A3814FF0FF3003B0BDE8F08F0020704709
:1017A000756833460836002DFAD0D3F800B02A46C3
:1017B0000A21584600F090F9002865D00130A0EBCE
:1017C0000B07AEE722699A4214D36569BD4211D86E
:1017D0006FF00043BB4228BF3B4693FBF5F35246F4
:1017E00005FB03F34846A56A216AA847051ECBDD21
:1017F0007F1B7BE7B94228BF39460D461846514644
:101800002A46FEF7BBFDA1682368491B2B44A16053
:1018100023600029ECD12146484600F065FA0028F3
:10182000E6D0B1E7BB463A4652E759460192FEF789
:10183000A5FD019AA36892469B1AA36023681344EE
:10184000236088E759465246FEF798FD23682146F3
:1018500053444846236000F047FA00283FF47BAF2A
:1018600092E7484600F084F9034600287FF426AF4B
:1018700048462169FFF75AF90C22B4F90C30C9F82F
:10188000002023F0800381E76A1C17464AE70C22F8
:10189000B4F90C30C9F8002078E700BF00FCFF7FE6
:1018A0002DE9F8434FF0000980460F461646D6E969
:1018B0000154013D10D4A389012B08D9B4F90E308D
:1018C000013304D021464046B84749EA0009013DAA
:1018D0006B1C04F16804EED13668002EE7D148464F
:1018E000BDE8F88310B50C46B1F90E100CF0CFFF2F
:1018F000002803DB636D0344636510BDA38923F4F3
:101900008053A38110BD00BF002070472DE9F04136
:101910000C46B1F90C101F46CB05054616460BD4F4
:1019200021F48051A1813B4632462846B4F90E107D
:10193000BDE8F0410CF0B2BFB4F90E100223002252
:101940000CF0AAFFB4F90C10EAE700BF10B50C4682
:10195000B1F90E100CF0A0FFB4F90C30421C0EBF10
:1019600023F4805343F480536065A38110BD00BF0E
:10197000B1F90E100CF094BFF8B506460D461446AA
:1019800010B1036A002B37D0A269A389A2601A079D
:1019900019D52369BBB122686169D31AEDB29942A6
:1019A0002F4620DD0133A1680139A160511C21605F
:1019B000157062699A420DD0A389DB0701D50A2D03
:1019C00008D03846F8BD2146304600F023F838B933
:1019D0002369E0E72146304600F086F90028F0D080
:1019E0004FF0FF37EDE72146304600F07DF9002843
:1019F000F6D101232268D6E7FFF78CFDC4E700BFCC
:101A000003460A46024908681946FFF7B5BF00BFFA
:101A1000000C002038B52F4B05461B680C4613B14F
:101A20001A6A002A4BD0B4F90C3018071CD5226969
:101A300022B313F0010107D000206169A060494280
:101A4000A1613AB1002038BD980758BF6169A16013
:101A5000002AF7D1190658BF1046F4D543F04003C9
:101A6000A3814FF0FF3038BDD9062CD55A0712D4C8
:101A7000226943F00803A381002ADAD103F420711C
:101A8000B1F5007FD5D02146284600F06DF9B4F9B4
:101A90000C302269CDE7616B51B104F144029142EF
:101AA00004D02846FFF742F8B4F90C3000226263F4
:101AB0000021226923F02403C4E90021D9E7184654
:101AC000FFF728FDAFE7092243F040032A60A38116
:101AD000C7E700BF000C00205FFA81FC810744D0FB
:101AE0000346511E22B909E09A0709D0013905D3EE
:101AF0001846027801336245F6D1704700207047DE
:101B0000184603290CD80029F8D00346014401E007
:101B10008B42F3D0184613F8012B6245F8D1704779
:101B200010B50CEB0C24024604EB044402E004392B
:101B3000032915D9104652F8043B6340A3F1013E36
:101B40002EEA030313F0803FF1D00346014401E085
:101B50008B4208D0184613F8012B6245F8D110BD0E
:101B600010460029F1D1002010BD1146C9E700BF81
:101B70002DE9F041144641B30AB306460D4600F084
:101B80007BF98442074602D8B4EB500F13D82146A4
:101B90003046FEF709FF804650B1BC422246294636
:101BA00028BF3A46FEF700FE29463046FEF7BEFF44
:101BB0004046BDE8F081A8464046BDE8F081A04619
:101BC000FEF7B4FF4046BDE8F0811146BDE8F041A4
:101BD000FEF7EABEF8B5B1F90C300C461E07074611
:101BE00039D44A68002A53DDE56A002D31D000223D
:101BF0003E683A6013F48052216A55D10123384679
:101C0000A847451C024663D0B4F90C30E56A216A46
:101C1000580705D56368D21A636B0BB1236CD21ACF
:101C200000233846A847421C40D000222369626046
:101C30002360A389DB0400D56065616B3E6041B120
:101C400004F14403994202D03846FEF76FFF0023A7
:101C500063630020F8BD0E69002EFAD09B0718BF01
:101C600000230D6808BF4B690E60AD1B8B600CE054
:101C70002B463246D4F828C03846216AE047B0F1F6
:101C8000000CA5EB0C05664406DD002DF0DCE0E75A
:101C90000A6C002AA8DCDCE7B4F90C3043F04003FE
:101CA0004FF0FF30A381F8BD626DB1E73968B4F938
:101CB0000C301D29F2D80B4ACA40D507EED50022B8
:101CC000626022692260DA04B7D50029B4D0B4E793
:101CD0003B68002B98D01D2B01D0162BDCD13E6029
:101CE000B7E700BF0100402038B50B69CBB10C4607
:101CF000054608B1036ABBB1B4F90C308BB1626E12
:101D0000D00701D4990512D528462146FFF762FF76
:101D1000636E0546DA0702D4A3899B050BD52846D6
:101D200038BD0025284638BDFFF7F4FBE4E7A06D79
:101D3000FEF7F2FEE8E7A06DFEF7F6FEEFE700BF64
:101D4000014618B1044B1868FFF7CEBF034A044997
:101D50000448FFF7A5BD00BF000C0020500C002078
:101D6000E91C0008040C002070B5B1F90C300C46D9
:101D7000990796B007D5012204F14703C4E904325C
:101D8000236016B070BDB4F90E100546002929DB9A
:101D90006A460CF094FD002822DB4FF4806128464F
:101DA000019EFEF701FE88B3A38906F4704643F056
:101DB0008003A3814FF48063B6F5005FC4E9040398
:101DC0002060DED12846B4F90E100CF084FD002806
:101DD000D7D0A38923F0030343F00103A381D0E705
:101DE000B4F90C3013F0800F14BF40264FF4806616
:101DF00028463146FEF7D8FD40B1A389C4E9040660
:101E000043F080032060A38116B070BDB4F90C309C
:101E10009A05B6D4012123F0030304F1470243F0ED
:101E20000203C4E90421A3812260AAE770B50C462D
:101E3000B1F90E10154600291E4696B00FDB6A4612
:101E40000CF03DFD00280ADB019B4FF4806203F497
:101E50007043A3F50053B3FA83F35B0907E0A2894B
:101E6000002312F0800F14BF40224FF48062002044
:101E700033602A6016B070BD51F8043C181F002B67
:101E8000BCBF0B58C0187047054B10B51F22044645
:101E900000211846FEF7F0FA00F8014C10BD00BF13
:101EA000891600202021014801F014BB881600206B
:101EB000014B1878704700BFA81600201F29F8B5FD
:101EC00067D90378213B072B63D8DFE803F0040CC4
:101ED0001A1C454F565C2120FFF7D6FF00222E4BDF
:101EE0005A709A7008E02220FFF7CEFF01222A4B99
:101EF0005A7000229A700622DA70FFF7D3FF012091
:101F0000F8BD2320E8E786784578092E06D92420F5
:101F1000FFF7BAFFFE22204B5A70EEE7AB19522BA7
:101F200014DC00271D4BC41C1D44FBB29E4204F16F
:101F30000304E4D914F8013C14F8022C14F8031C2F
:101F400015F8010B06F012FF0137EEE72420FFF72A
:101F50009BFFFD22104BDFE70122114B2D201A7051
:101F600008F036FB2520FFF78FFFC6E700220C4B59
:101F70001A7008F031FB2620F5E72720FFF784FFD1
:101F80005222054BC8E72820FFF77EFF0222024BB2
:101F9000C2E70020B4E700BF8816002069FF0008F0
:101FA000A8160020032806D8B422504300F12401CB
:101FB000014805F045BE7047A9160020032838B532
:101FC0000FD80A4C2378012B4FF0000309D1657814
:101FD000A84208D1237009B9012038BDFFF7E2FFFC
:101FE000FAE70020F9E71846F7E700BF5C0C00208D
:101FF000F7B504460D4608F06FFB2B4E2B4F708053
:10200000E0B285424ED90021294A0FE01CF801EBCD
:10201000BEF1FF0F01D0864518D00133DBB20F2B84
:10202000F4D10131062902F10F0239D09446002380
:10203000ECE7012906D1012B04D100227388ADF809
:10204000002015E07388ADF8000011E03A683AB35B
:102050001E2000FB012232F8131032F81300090A87
:1020600012F8133040BAE4D1002BEBD1ADF80030B8
:102070008DF80230009806F075F9C0F307238DF84B
:102080000400C0F307408DF805308DF806009DF878
:10209000063020469DF804209DF8051006F066FEE7
:1020A0000134ADE703B0F0BD5C0C002060170020E8
:1020B000EE0D00202DE9F04105460E46174600249E
:1020C00000F12408B44201D1BDE8F0812B19B3F529
:1020D000347F06D208EB040005F064FD3855013466
:1020E000F0E70020FAE72DE9F04105460E461746D5
:1020F000002400F12408B44201D1BDE8F0812B197D
:10210000B3F5347F04D2395D08EB040005F0B2FD6D
:102110000134F0E741EA020370B40D4650EA0301CE
:1021200004D170BCB4220A48FEF7A6B900241E26CA
:102130000F2306FB04F10648013B13F0FF03057073
:1021400042700844F8D10134062CF1D170BC7047BC
:10215000A9160020032806D8B422504300F1240118
:10216000014805F0B5BD7047A9160020074B084A85
:1021700010B51A600023074C2370607008F0ACFAA9
:1021800060806078BDE81040FFF7E4BF6017002072
:10219000A91600205C0C0020032808B50CD8074ABB
:1021A0005070FFF7D7FF08F02DFA2E2802D02E200E
:1021B00008F024FA012008BD0020FCE75C0C002098
:1021C000032808B511D80A4A117871B90121507055
:1021D0001170FFF7BFFF08F015FA2E2801D101207A
:1021E00008BD2E2008F00AFAF9E70020F8E700BF42
:1021F0005C0C0020024B1878431E5842584170472F
:102200005C0C002070B5114B1B78012B1CD1104ABF
:10221000126892B11E244878097804FB00220D4808
:1022200032F81140054630F8026BA64207D103F0A0
:10223000070335F8133022F81130012070BD013347
:10224000092BF0D10023F6E70020F7E75C0C002013
:1022500060170020500001084FF434722421014817
:1022600005F0EEBCB401010838B50024064D08F0B5
:10227000C9F915F8013B984204D00134192CF6D164
:10228000002038BDE0B2FCE73600010808B5FFF7D2
:10229000EBFF00F53E7005F085FC082828BF002004
:1022A00008BD000038B50446FFF7DEFF104B1B7871
:1022B000012B06D01922431CB3FBF2F102FB1133B0
:1022C000D8B20C4B185C207008F098F9FFF7DEFFCD
:1022D000094B13F8104003EB40035D7808F0FCF95C
:1022E000294602462046BDE8384008F0CEB900BF76
:1022F0005C0C00203600010821000108032810B5FD
:1023000004460AD8FFF726FF20460121FFF756FEB4
:102310002046BDE81040FFF73FBF10BDB42358432F
:10232000C1EB01111144243000EB41007047032838
:1023300038B510D805290ED80E2A0CD8FFF7EEFFB5
:10234000054605F02FFC0446681C05F02BFC44EA0A
:10235000002080B238BD0020FCE7032870B51C4681
:102360000FD805290DD80E2A0BD8FFF7D7FF054641
:10237000E1B205F07FFC210A681CBDE8704005F061
:1023800079BC70BD08B54FF43E7005F00BFC082811
:1023900028BF002008BD000070B508F033F90723FE
:1023A000134A12F8011B814220D0013B13F0FF03B6
:1023B000F7D10724FFF7E6FF0130B0FBF4F304FB8D
:1023C00013000C4BC4B213F8105003EB40035E78BB
:1023D00008F082F931460246284608F056F92146AF
:1023E0004FF43E7005F009FC204670BD0624E1E77D
:1023F0002F0001082100010870B5FFF747FF0446D0
:1024000006289CBF0B4B1C5C0B4B13F8145003EBC2
:1024100044035E7808F060F931460246284608F029
:1024200034F9FFF721FF2146BDE8704000F53E700A
:1024300005F0E3BB1A0001082100010870B5FFF7A1
:1024400025FF044606289CBF0B4B1C5C0B4B13F866
:10245000145003EB44035E7808F03EF9314602461F
:10246000284608F012F9FFF7FFFE2146BDE870404C
:1024700000F53E7005F0C1BB130001082100010802
:102480002DE9FF411D4B1B7893B3002201AC11468F
:10249000104606F0D7FC002527460A26DFF86080A4
:1024A0000A2241463846FEF77FF901F0B3F9037876
:1024B000EAB2B3FBF6F3934200D8E5B901F0AAF90A
:1024C0000378312B03D900239622194608E001F046
:1024D000A1F903781D2B4FF00003F5D81A46962179
:1024E0002078013506F042FC0A2D04F10104D7D111
:1024F00004B0BDE8F08100231A46E6E7B4410020AD
:10250000BBFF00082DE9F0430D46144689B00C28A6
:1025100048D8DFE810F00D004A008100C1004701F3
:10252000520160016E0179018401A501B301BF016F
:10253000C04FC14E386809F0E3FF0E2805D909F0F5
:102540009BFF338838600333338004EB84042C44CE
:102550006FF007084725FF27E4B208FB05F3328830
:1025600003F596631344B3FBF7F213448DF804307C
:102570008DF805708DF80640019805F0F3FEC0F364
:102580000721C0F307438DF808008DF809108DF876
:102590000A30C2B2DBB22846C9B2013506F0E6FB0A
:1025A000972DDAD109B0BDE8F083A44FA44E386866
:1025B00009F0A6FF0E2805D909F05EFF33883860C0
:1025C0000333338004EB84042C44FF270025E4B25A
:1025D00033888DF8057003EBC503B3FBF7F21344A2
:1025E0008DF804308DF80640019805F0BBFEC0F36D
:1025F0000721C0F307438DF808008DF809108DF806
:102600000A30C2B2DBB205F14700C9B2013506F0AB
:10261000ADFB502DDCD1C5E78A4F8B4E386809F0F1
:102620006FFF0E2805D909F027FF33883860033380
:10263000338004EB84042C444FF00C080025FF2762
:10264000E4B2282DEBB28CBF283BC3F128033288BB
:10265000DBB208FB0323B3FBF7F213448DF804301D
:102660008DF805708DF80640019805F07BFEC0F3EB
:102670000721C0F307438DF808008DF809108DF885
:102680000A30C2B2DBB205F14700C9B2013506F02B
:102690006DFB502DD5D185E705220023B1FBF2F269
:1026A000032C8DF809308DF80A308DF80D30ADF817
:1026B00010308DF813308DF814308DF817308DF8F8
:1026C00018308DF81B30614F4FEA51038DF80C2004
:1026D0008DF81D30A1EB44028DF81E308DF81F30AF
:1026E00098BF5B4BD2B238688CBF0F241C5D8DF84D
:1026F00008108DF80B108DF80E208DF80F208DF836
:1027000012108DF815208DF816208DF819108DF8FF
:102710001A208DF81C2009F0F3FEA0424D4E4E4CBD
:102720000ED309F0A9FE4D4938600B786BB32378BE
:102730000133DBB2AB4229BF0023237025700B703D
:102740004FF04709337803EB430320336B4413F80E
:10275000186C13F8177C13F8168C2178484601FB87
:1027600008F301FB07F27143B3FBF5F3B2FBF5F29B
:10277000B1FBF5F1DBB2D2B2C9B209F1010906F041
:10278000F5FAB9F1970FE8D10CE72278337812B156
:10279000013A2270D4E70122134403F007030A70C0
:1027A0003370CDE74724002320461A4629460134DA
:1027B00006F0DCFA972CF6D1F4E605264724B1FBA7
:1027C000F6F62046002332462946013406F0CEFABA
:1027D000972CF6D1E6E64725A1EB8204E4B2284621
:1027E000002322462146013506F0C0FA972DF6D186
:1027F000D8E64724002320462A461946013406F02D
:10280000B5FA972CF6D1CDE6472420462B462A462A
:102810000021013406F0AAFA972CF6D1C2E647242B
:10282000002220462B461146013406F09FFA972CD1
:10283000F6D1B7E6801700207C170020781700201B
:1028400074170020701700206C17002068170020F4
:10285000600001086417002065170020600C00204C
:102860004725A1EB8204E4B22846234600222146F4
:10287000013506F07BFA972DF6D193E647254C08F3
:102880002846234622462146013506F06FFA972D49
:10289000F6D187E64724002320461A46194601341C
:1028A00006F064FA972CF6D17CE600BF38B50C46EA
:1028B0000D4D78B109F0E0FD0C4B28601B7883B119
:1028C00000F0C6FA58B100F0C3FA0022114600F039
:1028D00009FA04E0286809F013FE3228EAD800203B
:1028E00038BD2370FBE700BF88170020F2210020CD
:1028F000014B1860704700BF8C17002070B500F0C6
:1029000085FF454C027823789A4206D000F07EFF7E
:10291000002203782370414B1A6001F027FE013832
:10292000C0B2062896BF3E4B002653F8206000F048
:102930006DFF0378032B06D8DFE803F0024C330762
:102940000022364B1A60012070BD344D2C6894B9BA
:1029500009F092FD334B28601A78002AF3D01C70DE
:1029600000F076FA054600F073FA22460146284642
:1029700002F0F2F8E7E7204647F22F5609F0C0FDD3
:10298000B042E0D9FFF736FC0028DCD109F074FD35
:102990002860112001F0F2F844F620600AF07FFF71
:1029A00014E001251D4C1F4B20681D7018B909F05B
:1029B00063FD2060C7E709F0A3FDB042C3D3FFF772
:1029C00019FC0028BFD109F057FD2060012000F05C
:1029D00075FCB8E7114C2368002BE8D000F038FAFA
:1029E000062809D000F034FA012805D000F030FAAA
:1029F000022801D000F02CFA206809F081FD47F28E
:102A00002F5398429FD9FFF7F5FB00289BD109F07F
:102A100033FD2060BDE700BF851700208C17002024
:102A2000640001088417002013B58DF807100DF11C
:102A30000701FFF73BFF044608B9FFF75FFF204699
:102A400002B010BD2B4B2DE9F0411B78BBB10F2517
:102A50004FF00108284E56F8041B4B1C0BD021F0F8
:102A60000F0701F00F0108FA01F401222146384650
:102A70000CF0C8F9BC61013D15F0FF05EBD1002257
:102A800080214FF080400CF0BDF900BF00BF00BFB7
:102A900000BF00BF00BF00BF00BF00BF00BF00BF3E
:102AA00000BF00BF00BF00BF00BF00BF00BF00BF2E
:102AB00000BF00BF00BF00BF00BF302585F31188F5
:102AC000012207214FF080400CF0BCF9002484F370
:102AD000118885F3118801220C214FF080400CF001
:102AE000B1F984F31188BDE8F041062123200BF0F1
:102AF00008BF00BFF021002080000108072804D093
:102B0000122804D1042000F0B9BB0320FBE7704772
:102B10004FF080434FF0807210B59A614FF0007211
:102B2000104C9A614021002220460CF06BF90022E3
:102B3000802120460CF066F94FF480030022A36147
:102B4000094B1A70094B1B785BB1112001F016F884
:102B500044F620600AF0A3FEBDE81040022000F019
:102B60008DBB10BD00040040D9210020F0210020C1
:102B700010B5084C237863B100F086FB03380128B8
:102B80009DBF0023032023700220BDE8104000F009
:102B900067BB10BDF021002010B5044609F06CFCA5
:102BA0003B4B186023780A2B66D006D8072B36D00B
:102BB000082B10D0FF23237018E0212BFAD1627864
:102BC000344B002A5FD0A1781A78002958D042F0FF
:102BD00080021A700AE0A378013B032BEAD8DFE8F1
:102BE00003F00206091201F0C1FCE07010BD0423DD
:102BF000E370FBE762792179E078FFF798FBA07139
:102C0000000AE071F2E7E0782379617940EA032075
:102C100040BAA21D80B2BDE81040FFF74BBAA378BE
:102C2000013B032BC6D8DFE803F0020B101BE07852
:102C30000728DBD801F0A2FCBDE8104001F0A6BBDC
:102C4000E078BDE81040FFF759BBE279A37921791C
:102C5000E07843EA02236279BDE81040FFF77DBBCC
:102C6000E0782379617940EA032040BAA21D80B25E
:102C7000BDE81040FFF737BABDE8104002F00ABBCC
:102C800061F3C712A5E71B78C3F3C013A370ADE7C8
:102C90008C170020D641002038B50C46054609F0B7
:102CA000EBFB074B214618602846FFF707F904465F
:102CB00020B92B780A2B01D102F0ECFA204638BD5E
:102CC0008C17002008B500F0A1FD0378022B03D17A
:102CD00000F0A4FD007808BD0020FCE700F086BDF0
:102CE00070470000F8B50C4615460646F8B921BBFA
:102CF000134F3B78A34200D13DB100F087FD032381
:102D0000037000F08BFD002303703C7004F00AFB9D
:102D10002946204600F0F8FF2A462146304601F0B9
:102D20001BFF2A4621463046FFF7DAFFF8BD00298F
:102D3000DED1012000F020FADAE70220FAE700BF36
:102D4000A317002037B5044600F060FD0378012B7F
:102D50000DD00025CDE9005500F058FD0378022B79
:102D600007D0094B2A4619780846FFF7BBFF03B086
:102D700030BD24B1082221466846FDF715FD68469E
:102D800000F062FEF3E700BFA317002037B504464A
:102D900000F03CFD0378012B0ED0002500958DF846
:102DA000045000F033FD0378022B07D00D4B2A4668
:102DB00019780846FFF796FF03B030BD74B1637809
:102DC0008DF80030A3788DF80130E3788DF802306B
:102DD00063798DF8033023798DF80430684600F06C
:102DE00091FEE9E7A317002037B5044600F00EFD79
:102DF0000378012B0DD00025ADF8065000F006FD3C
:102E00000378022B07D0114B2A4619780846FFF7A2
:102E100069FF03B030BD002CFBD0A278637843EA91
:102E20000223ADF80630813B022B09D801220DF1B7
:102E3000060002FA03F3ADF8063000F04FFEE8E7B3
:102E40000DF1060000F034FEE3E700BFA3170020F9
:102E5000014B1878704700BFA317002010B5154C20
:102E600000232278032A22D8DFE802F0020B131B8A
:102E70000A221148C370827009F034F901232370CB
:102E800010BD0D488370F623C37009F02BF902239F
:102E9000F5E7F6220848C370827009F023F903238E
:102EA000EDE7054883700A23C37009F01BF900237E
:102EB000E5E700BF9A170020941700207047000034
:102EC00010B5FFF7FBFF00F0D7FA00F0B1FC01F0FE
:102ED00003FC00F06DF9012803D1BDE8104000F0BB
:102EE0006DB900F0B7F968B9074C206809F008FB24
:102EF00040F6B733984205D900F06CFF10B109F0E5
:102F0000BBFA206010BD00BF901700202DE9F04FE4
:102F10008FB00E220021814602A8FDF7ADFA00F025
:102F200075FC0378012B0AD000F070FC0378022BAB
:102F300008D05D4B002219780846FFF7D3FE0FB08A
:102F4000BDE8F08FB9F1000F00F0A5804FF01E082A
:102F500000252022494606A8FDF726FC534F9DF880
:102F600019300DF119043B7014F8010F0CF0D0FD6D
:102F700008F1FF38284418F0FF08C5B2F4D14C4ED0
:102F80004FF0060BB2461AF8013F9BB300242246CD
:102F9000D3B29D420BD89AF80030A34218BF8AF8EA
:102FA000008022E001331E2B04D11C4607E00023E1
:102FB0000DF1190111F8010F0028F3D0DCB204F172
:102FC00038036B4413F81E0C019203F0ACF840EA8E
:102FD000C404E4B2214606A809F04FF99AF800307B
:102FE000019AA34202F10102D2D10BF1FF3B1BF087
:102FF000FF0BC8D14946202206A8FDF7D5FB4FF0AC
:1030000000084FF001095FFA88F39D420FD800F0E5
:10301000F3FA002845D1254809F052F802A800F03B
:103020002CFD8CE701331E2B04D11C4607E0002346
:103030000DF1190212F8011F0029F3D0DCB204F1DE
:1030400038036B4413F81E0C03F06DF840EAC40417
:10305000E4B2214606A809F010F93246002312F81E
:10306000011FA14202D021B93B449C7008F1010824
:10307000C9E70133062BF2D16F2CF7D80EAB03EB67
:10308000D40313F8302C04F0070409FA04F41443B1
:1030900003F8304CEAE7082249460448FDF7ECF90A
:1030A000B5E7FFF70DFFB2E7A31700209B1700203D
:1030B0009C17002008B5064B1B7823B9054B1B78DD
:1030C0000BB1FFF7CBFEBDE80840FFF7F9BE00BF2C
:1030D000A3170020B541002070B5044658B108F090
:1030E000DDFF0C4B834205D0184608F0D1FF0122CA
:1030F000094B1A7070BD00F089FB0378022BF9D1DF
:10310000044D20466B6898472046AB68BDE8704088
:10311000184700BF640C00203810002038B5044662
:1031200088B108F0BBFF114C84421ED00122104B25
:103130001A7001F077FA0F4809F00CFD2046BDE83F
:10314000384008F0A5BF0B4B1B78042B05D1074D69
:103150006B6898472046AB68984706480BF00BF918
:1031600004480BF019FD01F065FA38BD3C10002051
:10317000FA3D0020B446002010B50C4B04461A78E6
:10318000824204D00128187002D0022807D010BD56
:103190000020FFF7A1FF2046FFF7C0FFF7E7002060
:1031A000FFF7BCFF0120FFF797FFF0E7780C002046
:1031B000014B1878704700BF780C002010B50E4BFB
:1031C0000E4C1B78052B14D1236813B909F054F960
:1031D0002060206809F094F941F6573398420AD9E3
:1031E000002301202360064BBDE81040187000F05A
:1031F00065B80023236010BDB4460020A41700204A
:10320000B641002010B50B4C2378052B10D1B4F833
:103210004C309B0708D509F0DFF828B120460BF0A9
:1032200035F905480AF03BFBBDE8104009F0F6B857
:1032300010BD00BFB4460020A086010008B5044BB5
:103240001B78012B01D1FFF7DDFF012008BD00BF76
:10325000780C0020014B1878704700BFB017002091
:10326000014B1870704700BFB017002008B509F077
:1032700003F9014B186008BDAC170020014B187012
:10328000704700BFAA170020014B1878704700BF95
:10329000AA170020302310B583F3118800F0CAFD6F
:1032A000002484F3118872B600F0FAFE00F050FE9C
:1032B00004F06EFB84F3118862B610BD014B1870E8
:1032C000704700BFA917002010B5074C237828B11C
:1032D0001BB1FFF7CBFF0323237010BD002BFCD1E4
:1032E0000122024B1A70F8E7B0170020A91700203E
:1032F0000F4B70B51E6801F0EDF90E4D044618B97C
:1033000000232B7000240AE0FFF7A2FD18B90A4B36
:103310001B78042BF4D02B781BB100232B70204694
:1033200070BD002EEED003F0F7FFB042EAD3F4E711
:103330007C0C0020A9170020B446002010B5FFF730
:1033400087FD70B9084B1B785BB9084C2378012BBB
:1033500007D001F06FF920460BF01EFC20460BF061
:103360000AF8012010BD00BF01220020B446002051
:1033700008B5FFF7E3FF38B1044B186809F0C0F84F
:10338000C72894BF0020012008BD00BFAC17002053
:103390000120704708B5FFF7FBFF38B1044B1868F0
:1033A00009F0AEF8C72894BF0020012008BD00BF77
:1033B000AC17002070B5FFF74BFD044668B9084E06
:1033C0003578012D09D101F02DF9304609F0C2FB05
:1033D000224621462846FFF785FC012070BD00BF2C
:1033E000B446002008B5FFF7E5FF38B1044B186874
:1033F00009F086F8C72894BF0020012008BD00BF4F
:10340000AC1700207047000008B507F0BBF8003883
:1034100018BF0120044B187007F0A4F808F0F5FF5E
:10342000FFF7F0FF08BD00BFA8170020002310B56C
:10343000074C2370FFF76CFBFFF72CFF2378054A3E
:10344000022B18BF03231370FFF792FB10BD00BFC0
:10345000AA170020B017002008B5064B1B780BB147
:1034600007F06EF808F0DAFF01F0BEFDBDE8084095
:1034700003F058BFA817002010B5154C2378032B74
:103480001BD8DFE803F0020A131BFFF731FFA0B1DE
:10349000FFF7ECFE012323700FE0FFF769FF60B137
:1034A000FFF7B2FFFFF7E2FE0223F4E7FFF772FF38
:1034B00018B1FFF7DBFEFFF7B9FF10BDFFF792FF72
:1034C0000028FAD0FFF7C8FFFFF7D0FE0023E2E79D
:1034D000B0170020202938B505460C4610D1FFF75B
:1034E00067FE012806D122462946BDE83840022061
:1034F00009F07CBB21462846BDE8384000F0E4BB1B
:1035000038BD08F0E8BC0000054A064B06495A6081
:10351000116051609A60DA60002219611A70704778
:10352000981F0020B4170020C81700202DE9F04193
:10353000174C0E466768A56807F59C784545E36813
:1035400004D19F4206D10020BDE8F08105F10802B8
:103550009342F7E70F4B22699A1A312A9CBFA3F2D4
:10356000CF732361322EEED82369014632461846C6
:10357000FDF71AF9034645453344286023616B6023
:1035800002D1A7600120DFE70835A560FAE700BF98
:10359000B4170020971F0020074A10B5D36892681F
:1035A000934207D0D3E90014641A2246FDF7FCF8D1
:1035B000204610BD0024FBE7B4170020074BDA6853
:1035C00099688A4208D0596801F59C70824201D1FD
:1035D000D96070470832DA60704700BFB417002026
:1035E000014B1878704700BFB4170020014B1870CA
:1035F000704700BFB4170020034BD8689B68C01AFF
:1036000018BF0120704700BFB417002010490023E5
:103610000A4610B50C7C844212D11C215943501823
:10362000806850B1FF28515808D048434000411CE1
:103630001C2000FB03220120516010BD0131F7E77F
:1036400001330A2B01F11C01E4D10020F5E700BF92
:10365000D00C0020F0B50A4E00253446377C874256
:1036600007D11C2000FB05404176027683760120BD
:10367000F0BD01350A2D06F11C06EFD10020F7E759
:10368000D00C0020094A30B500231446157C854231
:1036900005D11C22012002FB0344A16030BD01338F
:1036A0000A2B02F11C02F1D10020F7E7D00C002018
:1036B000094A30B500231446157C854205D11C22E9
:1036C000012002FB0344616030BD01330A2B02F18B
:1036D0001C02F1D10020F7E7D00C002070B50B4C94
:1036E00000232546267C864209D11C204343E81846
:1036F000E95000238260C3604374012070BD013330
:103700000A2B04F11C04EDD10020F7E7D00C0020B7
:1037100070B500252E462B4C6368002B4FD0E06817
:1037200008BB637CB3FA83F35B09637408F0A4FEFF
:10373000D4E900239342E0602BD266606674E660B1
:1037400063690BB1207C9847207CFF2824D100229C
:103750001146104605F076FB0735462D04F11C0492
:10376000DAD1012070BD08F0CBFE23689842D8D290
:103770006368002BE4D0204600F0A4FD0028EBD0C5
:10378000637C207CB3B1FF280CD1A27E217E607EB9
:10379000E0E79B1A6360EBE79628DDD800231A4622
:1037A000194604E09628D7D8A37E227E617E05F0D4
:1037B000DDFAD1E7FF28CAD09628CDD8EFE76374A9
:1037C000E360C9E7D00C00200246002330B544185E
:1037D00012F8015B2B44A242DBB2F9D1435430BD55
:1037E0000120704708B5FFF7FBFF08BD08B54FF48F
:1037F000E13008F08FFFFFF787FEBDE80840242284
:1038000000210148FCF738BE2C21002000487047F9
:10381000800C002000487047830C0020004870474F
:10382000810C002018B111B189B208F0A3BF704714
:1038300073B5FFF7D5FE03280FD8DFE800F040028C
:103840002D3B774B186808F05BFE0A2805D900224B
:103850000220744B1A70FFF7C9FE734D734C08F0C9
:1038600093FF002856D008F07BFF2A68012A38D041
:10387000022A3ED0002A5BD161282FD85F2804D8C5
:10388000A0F15A03DBB2032BE9D8012302222B60FB
:10389000674B20701A70E2E7624A13780133DBB29B
:1038A000282B02D813700020D5E700231370FFF7F0
:1038B00085FEF8E7FFF782FE0020FFF797FE5D48E0
:1038C000FFF76AFE01460028C7D05A48FFF7AAFF53
:1038D00008F0D2FD524B18600120BCE7AF28BED1E2
:1038E000D3E70223524A2B6013786070013B1370B8
:1038F000B5E72378612B0FD163780D2B18D10A28F7
:1039000016D1FFF76DFE012802D10320FFF76EFEEE
:1039100000232B6002B070BDAF2B09D16378602B00
:1039200006D103232B60424BA0700130187096E73C
:103930003F49531C2B600B78A054013BDBB20B704A
:10394000002B8CD11946394810F8016B01313344F2
:103950008A42DBB2F8D8A25C9A422AD103223649C5
:1039600001A8FCF721FF032101A808F003FF20466E
:103970002978FFF737FF0028CCD02378602B0AD8AE
:10398000592B16D95A3B062B13D8DFE803F015192B
:103990003A3E12124200AF2B0BD1A678202E08D14E
:1039A000264932462648FCF7FFFE31462448FFF7F9
:1039B000A8FD00232B6052E76278224B5A70F8E78B
:1039C0006378313B052BF4D801A252F823F000BFF5
:1039D000E9390008F1390008F7390008B33900085F
:1039E000B3390008FD3900080122164B1A70E0E7D0
:1039F0000222144BFAE70322124BF7E70422114B81
:103A0000F4E762780F4BDA70D3E762780D4B9A7067
:103A1000CFE76078431E58425841FFF755FCC8E78E
:103A2000E4200020E0200020DC20002008210020ED
:103A3000D82000202C210020C6FF00080B210020E8
:103A4000E8200020800C00201FB500230193029382
:103A5000ADF80C30A123082201460DF105008DF8C8
:103A60000430FCF7A1FE01A80921FFF7ADFE0A21F1
:103A7000FFF75CFD05B05DF804FB30B5102585B09F
:103A800004462A4600216846FCF7F6FCA2230E22D3
:103A900021460DF101008DF80030FCF785FE6846E7
:103AA0000F21FFF791FE2946FFF740FD05B030BD1D
:103AB000002307B50193A323022201460DF105005F
:103AC0008DF80430FCF770FE01A80321FFF77CFE9F
:103AD0000421FFF72BFD03B05DF804FB002307B5BD
:103AE0008DF80630A4238DF804300378022101A854
:103AF0008DF80530FFF768FE0321FFF717FD03B0CF
:103B00005DF804FB002307B50093ADF804308DF891
:103B10000630A823052201460DF101008DF8003082
:103B2000FCF742FE68460621FFF74EFE0721FFF72D
:103B3000FDFC03B05DF804FB30B5054687B01522E7
:103B400000216846FCF798FC2846FCF7A3FEC4B2A7
:103B5000122C11D8A923224629460DF102008DF816
:103B600000308DF80140FCF71FFEA11C6846FFF7EE
:103B70002BFE1521FFF7DAFC07B030BD002307B597
:103B80008DF80630A6238DF80500022101A88DF8D6
:103B90000430FFF719FE0321FFF7C8FC03B05DF8FE
:103BA00004FB002307B58DF80630A7238DF8050028
:103BB000022101A88DF80430FFF706FE0321FFF76C
:103BC000B5FC03B05DF804FBB32307B58DF8032003
:103BD0009A1A8DF8010010448DF802108DF8040037
:103BE000052168468DF80030FFF7A0FC03B05DF8B2
:103BF00004FB000013B503240549224601A8FCF785
:103C0000D3FD214601A8FFF791FC02B010BD00BF13
:103C1000D8FD000830B50C468FB005463122002192
:103C200001A8FCF729FC2E2C11D8AB2322462946EB
:103C30000DF106008DF804308DF80540FCF7B4FD59
:103C4000A11C01A8FFF7C0FDE11CFFF76FFC0FB03E
:103C500030BD30B50C468FB005463122002101A899
:103C6000FCF70AFC2E2C11D8AC23224629460DF174
:103C700006008DF804308DF80540FCF795FDA11C79
:103C800001A8FFF7A1FDE11CFFF750FC0FB030BD0C
:103C90001FB5002304220293ADF80C30AD2340EA97
:103CA000014001900DEB02010DF109008DF8083083
:103CB000FCF77AFD02A80521FFF786FD0621FFF734
:103CC00035FC05B05DF804FB30B50C468BB00546FD
:103CD0002422002101A8FCF7CFFB202C12D146F2B0
:103CE000AF13224629460DF10700ADF804308DF8D8
:103CF0000640FCF759FD232101A8FFF765FD2421AB
:103D0000FFF714FC0BB030BD10B50C46062851D897
:103D1000DFE800F004212C353E4709001120BDE802
:103D20001040FFF72BBF3020FFF728FF002C41D0B9
:103D30000A212148FFF76EFF28212048FFF789FF5D
:103D400043F22D404EF21A51FFF7A2FF5220FFF727
:103D500015FF5120E3E73120FFF710FF54B3522045
:103D6000FFF70CFF1648FFF7E7FEF2E73220FFF7F8
:103D700005FFFCB15220FFF701FF1248F3E73320A3
:103D8000FFF7FCFEB4B15220FFF7F8FE0E48EAE759
:103D90003420FFF7F3FE6CB15220FFF7EFFE0B4823
:103DA000E1E73520FFF7EAFE24B15220FFF7E6FEF7
:103DB0000748D8E710BD00BFBC000108C6000108D5
:103DC000CAFF0008D4FF0008DEFF0008E8FF000873
:103DD000F2FF000808B5FFF70FFC20B95320FFF7EA
:103DE000CDFE012008BD0020FCE7000010B5C4B2E4
:103DF0000B2C0CBF02200120FFF740FA2046FEF7F3
:103E00007DFE0AF0D8FF4FF0FF32014B5A6110BD22
:103E1000001800400023054A0549C2E90013013398
:103E2000102B02F10802F8D1704700BF7044002047
:103E3000ED3D00082DE9F041FFF7ECFF00254FF0C4
:103E400001083F4E56F8041B4A1C0CD021F00F0706
:103E500001F00F0108FA01F4214605223846240436
:103E60000AF0D0FFBC610135EDB20F2DEAD1062476
:103E700001263027334D55F8040B431C2ED000F09B
:103E80000F01202206FA01F120F00F000AF0BAFF1C
:103E900000BF00BF00BF00BF00BF00BF00BF00BF2A
:103EA00000BF00BF00BF00BF00BF00BF00BF00BF1A
:103EB00000BF00BF00BF00BF00BF00BF00BF00BF0A
:103EC00087F3118855F8040C022200F00F0120F04E
:103ED0000F000AF0B7FF002383F31188013C14F0B0
:103EE000FF04C8D122464FF4006117480AF08AFF48
:103EF00000BF00BF00BF00BF00BF00BF00BF00BFCA
:103F000000BF00BF00BF00BF00BF00BF00BF00BFB9
:103F100000BF00BF00BF00BF00BF00BF00BF00BFA9
:103F2000302383F3118803220B2107480AF08AFF0C
:103F300084F31188FEF786FDBDE8F0410AF01CBF4E
:103F40004C0101088801010800080040704700008A
:103F500008B508F087FE0322214B22499A620C2201
:103F6000DA62D1F89020204822F01802C1F890209F
:103F700000229A62DA62D3F8402C03F5406342F4DF
:103F800080721A641A6C4FF4006142F002021A64E3
:103F900001225A63DA67DA6608225A615A695A615D
:103FA0005A6942F001025A619A6C42F4C0629A6402
:103FB0009A6CDA6C42F00802DA64DA6C9A6C42F4B9
:103FC00080529A649A6CDA6C42F01002DA6440F221
:103FD0008232DB6C0AF016FFFFF7B8FF08BD00BFA6
:103FE0000000014000040140000800404FF0E022C2
:103FF00038B51369012423F001031361224A234BCE
:104000005A6100220021930003F1604303F56143EC
:10401000D3F80001CDB2012D94BF002000F00100C3
:1040200008B1C3F8804101312029F1D10132082AB9
:10403000E8D1174C636843F000736360154B1A684E
:1040400002F009021A601A6842F46C3242F004026B
:104050001A6040F2B3321A620F4B43F001039847E3
:10406000236943F00403236130BF0C4B43F0010389
:1040700098474FF0E022236923F00403236113697A
:1040800043F00103136138BDFFFF07000018004033
:1040900000ED00E00000014024010108F0000108EB
:1040A000FFF7A4BF38B51A4D04462B78042B1BD854
:1040B000DFE803F003280E1F280000231A461946E4
:1040C000FFF7C8FAFF2232212046FFF707FB0BE07B
:1040D000FF231A461946FFF7BDFA0322FA212046AC
:1040E000FFF7FCFA01232B702046BDE83840FFF7AC
:1040F0008DBAFF231A461946FFF7ACFA01224FF496
:10410000FA71E1E700232B70FFF7CCFFECE700BF6B
:10411000DA210020F8B53C4B04461D783B4F3C4E5D
:10412000CDB13C4B3C4A1B7873B100231360012294
:1041300019463270FF223B70FFF78CFAFF220A21EA
:104140002046FFF7CBFA44E013600122FF213270D2
:104150003B701A46F0E7FFF75DFB03780F2B44D85E
:1041600033783D70002B39D02A462B46FF2120465C
:10417000FFF770FA01224FF4FA712046FFF7AEFA0A
:10418000FFF748FB037823BB234D2B6813B908F0D6
:1041900073F928602868E0B108F0B2F946F2A81374
:1041A000984216D902F01AFB286890B108F0A8F9D5
:1041B00046F2905398420CD902F010FB00232B607A
:1041C0000125164B11201D70FFF7D8FC2846FFF77C
:1041D00075F82046BDE8F840FFF718BA1A461946A8
:1041E0002046FFF737FAFF22C5E701230A4A29468E
:1041F0003B70156033702A462B462046FFF72AFA9B
:10420000FF224FF496719BE701220020F12100204C
:10421000870C00200022002064210020F0210020D3
:10422000FF2810B504461CD10E4BD3F8143123F0EF
:104230007F43B3F5405F0DD1002230231146FFF7D5
:1042400009FA20460121FFF71DFA2046BDE810407B
:10425000FFF7DCB9B3F5401F03D100233022194624
:10426000EDE710BDD00C002070B51D460C4B0E467E
:104270005B781446DB060DD50A4B187801F053FF26
:10428000022808BF3446E0B26B792BB1BDE870401C
:1042900001F0C0BFC0B2F7E7BDE8704002F002B85D
:1042A000BC4100203922002008B5054B00211870C0
:1042B000FB20FFF7FDF9BDE80840FB20FFF7F2BE49
:1042C000DA21002010B5037C0446FA2B0AD0FB2B20
:1042D0003BD0294B1B78BBB9FDF78CFF80F0010068
:1042E000C0B212E0254B1B7873B9234B1B785BB926
:1042F000234B1B78DB0607D506F084F91D2805D172
:10430000627C204B9AB91A70002010BD06F07AF931
:104310002028F5D0637CB3B1637E53B9237E002B94
:10432000F2D0A37E002BEFD1FF22194607E0012235
:10433000E9E7A36913F0FF13E6D11A46FF2107202E
:1043400004F014FDE0E71A46EFE70C4B1B78012B55
:104350000ED0033B012BD7D80B4B1B78002BD3D0AF
:10436000437C002BD0D0837E027E417E5020E7E745
:10437000FDF740FFC8E700BFF6210020DA2100204A
:10438000BC410020EE210020B8410020014B1868FC
:1043900002F048BFBC4100200B8813B5A3F5FC43D5
:1043A0000A2B28D8DFE803F0062A435C27272727B3
:1043B000A9277400684B01201A780DF10701C2F398
:1043C000420352098DF80730FEF770FA9DF8072076
:1043D000042A10D81523D340D9070CD5FEF738FD91
:1043E00001221146FEF77EFC01225C4B1A7008F098
:1043F00043F8FEF77DFA002002B010BD564B0120B5
:104400001A780DF10701C2F3420352098DF8073003
:10441000FEF74CFA9DF80720042AECD81523D34068
:10442000DA07E8D5FEF714FD01220221DAE74A4B4C
:1044300001201A780DF10701C2F3420352098DF8E9
:104440000730FEF733FA9DF80720042AD3D8152346
:10445000D340DB07CFD5FEF7FBFC01220321C1E7E8
:104460003D4B01201A780DF10701C2F342035209B6
:104470008DF80730FEF71AFA9DF80730DA1E012A88
:1044800001D9002BB7D1FEF7E3FC01220621A9E7F1
:10449000334B187801F047FE02280CBF012200229E
:1044A000304B1A701BD1002001F09FFD002002F05C
:1044B00010FA0022FF2311461A20FFF7CBF88120C3
:1044C000FFF76FFB00211A20FFF7F2F80322FA2111
:1044D0001A20FFF703F91A20FFF798F88BE702205C
:1044E00001F083FD002002F0F4F9FF231A201A46A0
:1044F0001946FFF7AFF88020E2E7174A517881F0BC
:104500000803C3F3C00363F3C30111F00804164B9F
:10451000517016D001221A800023FF211A46242050
:10452000FFF798F800212420FFF7C2F80322FA21B0
:104530002420FFF7D3F82420FFF768F8FFF726FFC1
:1045400059E708221A80FF23242019461A46FFF74C
:1045500081F82146E7E700BFBC410020D9210020B7
:1045600039220020F4210020EC0D0020024B587865
:1045700000F00700704700BFBC410020024B5A7892
:1045800060F302025A707047BC4100200022174BB2
:1045900010B51A700122164C164B1A702368164A71
:1045A0001A40164B13432360FF232371FEF750FC80
:1045B000237860F343032370FDF74EFEFFF7E6FE1A
:1045C0000F4B187870B102280CD0002002F081F94E
:1045D000BDE810400B4B1A7842F080021A70188820
:1045E00002F019BE01F001FDEFE700BFED21002050
:1045F000BC410020EA0D00200E80E0F031270400CD
:10460000EF210020D641002008B502F008FE044B3F
:10461000186018B9BDE80840FFF7B8BF08BD00BF73
:10462000BC4100204FF40032014B9A61704700BF3B
:10463000000400400222014B9A61704700040040D0
:104640004FF080434FF080729A6107F0C3BE0000C4
:104650004FF080434FF4807210B59A614FF40072AE
:10466000184C9A618021012220460AF0CBFB4FF4BE
:1046700000030122A361402120460AF0C3FB124B34
:104680005B7813F0400316D040230022A3610F4B48
:104690001A70FEF7DDFB0446FEF7DAFB0022014646
:1046A0002046FEF71FFB07F096FE07F0E5FEBDE88B
:1046B0001040FEF71DB94FF48002A261044A137046
:1046C000E7E700BF00040040BC410020EA0D0020E5
:1046D000ED2100200120704738B5134D134C286898
:1046E000C8B107F00DFF632815D97020FFF746FA0F
:1046F0005520FFF743FA5720FFF740FA00222178B0
:1047000011F00E0F0CBF01201046C1F34201FEF75D
:10471000E9FA00232B6021780020BDE838404A09DF
:10472000C1F34201FEF780B904220020BC41002001
:104730008C4B73B51880A0F5FC400C460A2800F29B
:104740000E81DFE810F0340072009300B300D70050
:104750000C010C010C0114000C011400824C207897
:1047600006F0ECFB00232370002002B070BD4B79F3
:10477000002BF3D0FEF76CFB0446FEF769FB844286
:1047800009D0FEF765FB0446FEF762FB00220146F6
:104790002046FEF7A7FA744C2378002BE4D140F6AC
:1047A000B830704A714906F0BBFB2070DCE7704BF3
:1047B00001201A780DF10701C2F3420352098DF866
:1047C0000730FEF773F89DF80720042A26D8152332
:1047D000D340D90722D56679634D002E00F085803D
:1047E000FEF736FB012805D0FEF732FB002201213F
:1047F000FEF778FA2B7833B940F6B830594A5B495E
:1048000006F08EFB2870637943B107F007FE0022A3
:10481000584B1A7007F030FEFEF76AF8FF20FFF7DA
:10482000ADF90022544B1A709EE7514B01201A78C3
:104830000DF10701C2F3420352098DF80730FEF76C
:1048400035F89DF80720042AE8D81523D340DA0765
:10485000E4D56679444D002E47D0FEF7F9FA0228D8
:10486000C8D0FEF7F5FA00220221C1E7404B012033
:104870001A780DF10701C2F3420352098DF807308F
:10488000FEF714F89DF80720042AC7D81523D34053
:10489000DB07C3D56679344D3EB3FEF7D9FA03285A
:1048A000A8D0FEF7D5FA00220321A1E7304B012062
:1048B0001A780DF10701C2F3420352098DF807304F
:1048C000FDF7F4FF9DF80730DA1E012A01D9002B0D
:1048D000A4D16679244D46B1FEF7BAFA062889D0EC
:1048E000FEF7B6FA0022062182E7287806F026FBBA
:1048F0002E7088E71E4B01201A780DF10701C2F3D4
:10490000420352098DF80730FDF7D0FF9DF80730BC
:10491000DA1E012A01D9002B83D16579124CCDB161
:10492000FEF796FA28B1FEF793FA00221146FEF739
:10493000D9F9237833B940F6B8300A4A0B4906F062
:10494000EFFA207000220B4B1A7007F095FDFDF76F
:10495000CFFF66E7207806F0F1FA2570F2E7012034
:1049600003E700BF602100205F2100209943000879
:10497000BC410020D9210020E0210020F8B50446E8
:104980000D46FEF743FF0378022B03D107F074FDB9
:10499000FDF7AEFF47F621039C421BD015D845F228
:1049A000212224F00203934228D16F7997B9FDF7B1
:1049B00021FC78B11B4E337823B12946204637704D
:1049C000FDF720FC0123337004E0A4F5FC43123B07
:1049D000032B13D8FDF70EFC10B3A4F5FC43123BD8
:1049E000032B1CD947F621039C4218D045F2212005
:1049F00024F00204231A5842584110E0FDF7FAFB54
:104A00000028E7D0A4F5A443203B1F2BE2D96B7903
:104A1000002BDFD029462046FDF7F4FB0020F8BD2F
:104A20000120FCE7B84100201E3808B50B462728B6
:104A30006DD8DFE800F0141B1F23272B2F33373BE3
:104A40006C6C6C6C6C3F436C6C6C6C6C6C6C6C6CFC
:104A50006C6C474B4E5154575A5D606366693A22FD
:104A6000BE211E20FFF700FC002008BD3B22BD2117
:104A70001F20F7E73C22C1212020F3E73D22C2217D
:104A80002120EFE73E2222201146EBE73F222320A0
:104A90001146E7E74022AC212420E3E74122AE2182
:104AA0002520DFE74222AB212620DBE74322A82195
:104AB0002720D7E74422AA212D20D3E74522A92188
:104AC0002E20CFE7B3223A210846CBE7B5223B217F
:104AD000FAE7B1223C21F7E7B2223D21F4E7AF2209
:104AE0003E21F1E7AD223F21EEE7AC224021EBE78A
:104AF000AE224121E8E7AB224221E5E7A82243218B
:104B0000E2E7AA224421DFE7A9224521DCE70120D0
:104B1000ABE7000073B5154606461C46019107F049
:104B2000ABFC084B03221860074B64001E60074B68
:104B300001A91D60064B07481C60FBF735FE02B05B
:104B400070BD00BFD4210020C8210020D02100204A
:104B5000CC210020C2210020F7B5474B474E0D461F
:104B6000377814461A70FEF773F9C7F34207874285
:104B700013D0FEF76DF9337800F0070060F34303BC
:104B80003370DAB203F00E032BB103289EBF134635
:104B900060F347133370FFF7F9FB062D69D8DFE8A0
:104BA00005F057041C3068684400FF236CB10022F4
:104BB0008DF80630ADF804200123C82204200199A5
:104BC00003B0BDE8F040FFF7A5BF8DF806304FF405
:104BD000FA720123ADF80440F0E7FF234CB1002244
:104BE0008DF80630ADF804200123C8220320019976
:104BF000E6E78DF806304FF4FA720123ADF8044071
:104C0000F4E7FF234CB100228DF80630ADF8042004
:104C10000123C82202200199D2E78DF806304FF413
:104C2000FA720123ADF80440F4E74FF47F43ADF886
:104C300004303CB10023C8228DF806300123184609
:104C40000199BDE701234FF4FA728DF80640F6E7AB
:104C50004FF6FF73ADF804308DF8063001231CB118
:104C6000C82200200199ABE74FF4FA72204601995F
:104C7000A6E703B0F0BD00BFD8210020BC41002052
:104C800010B5FEF7C3FD0378022B13D0FEF7E0F852
:104C900018B90A4B1B78042B0AD0FEF7D9F8044642
:104CA000FEF7D6F8064B01461A782046FFF754FF68
:104CB000012010BD01F05FFA0020FAE7B4460020A1
:104CC000D821002070B5164C2068D0B107F018FC30
:104CD000144B154D1B68984208D2144B18682B686A
:104CE00013F0010313D11A46194614E007F0C4FB70
:104CF0002B68206033B900232360FFF7C1FF002831
:104D0000EBD170BD013B2B60002BE6D1F3E70849E6
:104D10008B784A780978BDE8704004F027B800BF66
:104D2000D4210020D0210020CC210020C821002047
:104D3000C221002008B53023FF201A461946FEF78D
:104D400089FC0322FA21FF20FEF7C8FCFF20FEF7B2
:104D50005DFC012008BD0000204B2DE9F0411B78CF
:104D600013B30025DFF87880474600242846E1B2D7
:104D700002F0C8FD064660B13B7853B94DB9012C2D
:104D800014D16020FEF7FAFE224605212846FEF7E0
:104D90001BFF01340F2C07F8016BE7D10135EDB291
:104DA000062D08F10F08DFD1BDE8F081022C06D1F5
:104DB0006020FEF7E3FE012205211320E7E7032C24
:104DC00006D16020FEF7DAFE012205212720DEE76A
:104DD000042CDED1FEF70EFFDBE700BFF22100203E
:104DE000682100204FF0804213692DE9F0415A4CB0
:104DF00003F08001C3F3C01323701369574E03F40B
:104E00000042C3F3C0333370002969D0002A0CBFBD
:104E100064256625524F3868002863D107F02CFBC3
:104E200038602846FEF7AAFE5320FEF7A7FE4D4F36
:104E3000FFF792FF387801F076F9002858D0022861
:104E400056D0DFF8248198F800307BB1474D2868B0
:104E500007F056FB4F2809D94FF40002444B9A61E2
:104E6000002388F8003007F007FB2860DFF8048192
:104E700098F800307BB1404D286807F041FBC72807
:104E800009D94FF400023A4B9A61002388F80030A8
:104E900007F0F2FA2860394D2B7853B9387801F0D1
:104EA00042F902280CBF80208120FEF77AFE012300
:104EB0002B70FDF7CDFF324D2B78834207D0FDF7E5
:104EC000C7FF2870FDF7C4FFFF20FEF757FE05F06F
:104ED00099FB1D280FD12B4B1B788BB1BDE8F081BE
:104EE000652597E707F00CFBB0F57A7F96D89EE72B
:104EF000254B1870A5E705F085FB2028EED1EAE7E1
:104F0000224B1A78002AE9D1214B1B78DB06E5D524
:104F10002578204C6DB1337843B11346FF221946F2
:104F2000072003F023FF01232370D7E71A46FF2150
:104F3000F6E7FEF76FFC03780F2BF4D8237833B92C
:104F40001A461946BDE8F041072003F00FBF2B4673
:104F50002A46FF21F6E700BF0122002000220020A0
:104F60005821002039220020EC210020E8210020D7
:104F700000040040E90D0020E4210020552100201C
:104F8000860C0020DA210020EF210020F6210020ED
:104F9000BC410020EE2100202DE9F3410026FF272F
:104FA000104D054400EB80004400E4B28DF8004051
:104FB0008DF801708DF80270009815F8018B03F0E0
:104FC000D1F90136C0F30743C2B2C0F3072140460E
:104FD00003F0CCFE0A34052EE4B2E7D102B0BDE8FE
:104FE000F08100BF880C002038B5FDF731FF044682
:104FF00070B923480578012D0AD14FF40032214BB6
:105000009A6107F0A7FD224621462846FDF76AFE71
:105010001D4D002029781B4C4A09C1F34201FDF7C0
:1050200003FD4FF080434FF480729A614FF4007299
:1050300040219A612046202209F0E4FE20228021AE
:10504000204609F0DFFE01228021204609F0DAFE29
:105050004FF400030122A3614021204609F0D2FE53
:105060006B7813F0400305D040230022A361074B67
:105070001A7038BD4FF48002A261054A1370F8E738
:10508000B446002000040040BC410020EA0D00208E
:10509000ED210020F8B5002401270A4E0025204606
:1050A000E9B202F02FFC28B1052C03D115B9012576
:1050B0003770F4E701350F2DF1D10134E4B2062C3D
:1050C000ECD1F8BDF22100201A4B07B51B7873B361
:1050D000194B1B78032B17D8DFE803F00221242794
:1050E0004FF47F43ADF80430A0238DF806300198CB
:1050F00003F038F9C0F307238DF80000C0F3074030
:105100008DF801308DF802009DF802209DF8001006
:105110009DF8010003B05DF804EB03F093BE4FF679
:105120005573DFE74FF6AA73DCE70023DAE703B035
:105130005DF804FBF6210020F52100200A4B9B7846
:1051400003F00703032B0BD8DFE803F00C0206087B
:105150001123064A137070471E23FAE72A23F8E743
:105160003723F6E70823F4E7BC410020E1210020C3
:1051700038B5FFF749FA01224FF480714FF08040B3
:1051800009F040FE4FF080454FF48073AB614FF45F
:1051900000333A4C0122A3612046022109F032FE7D
:1051A00028460022802109F02DFE284620224FF4B7
:1051B000004109F027FE20462022402109F022FE6E
:1051C00020462022802109F01DFE284601224FF4AE
:1051D000007109F017FE4FF40073AB61284DFDF725
:1051E0007DFD29780022C1F342010120FDF77AFDFF
:1051F00007F042F9234BFF221860C821FA20FEF77E
:105200006DFAFA20FEF702FAFF22C821FB20FEF712
:1052100065FAFB20FEF7FAF9FDF71AFEFF20FEF70C
:10522000ADFC02F09DF8A878C0F3C100FCF79EFF2A
:1052300020460122802109F0E5FD4FF40003012200
:10524000A3614021204609F0DDFD6B7813F0400199
:1052500017BF40224FF480020021A2610ABFA26161
:10526000094A0A4A13F0080F11700CBF01220822E4
:10527000074B1A80BDE83840FFF760BF00040040CC
:10528000BC41002004220020EA0D0020ED21002076
:10529000EC0D002008B502F021F803F035FD01F017
:1052A000B7FF054B1880FFF745FD18B1BDE8084072
:1052B000FFF75EBF08BD00BFD64100202DE9F041D9
:1052C00006460C46FFF75AFB002800F00B812146EA
:1052D0003046FFF7A9FB002800F004812146304644
:1052E000FFF726FA0746002800F0FC80B54B1B7834
:1052F00023B147F60E639E4240F0F480DFF8C88287
:1053000098F8003053B1637943B12C2E06D00022B7
:105310001146104688F8002003F094FDAB4D2B7821
:1053200013F00E0F40F0D080B6F5F84F00F07D81FD
:1053300000F2A88045F202239E4200F0E9827AD86A
:105340007E2E4CD87A2E3FD82C2E00F07F81384606
:10535000BDE8F081A6F5FC46053E182EF7D801A35E
:1053600053F826F0F55800085955000879570008F9
:105370004F5300083D5600084F5300082D5A0008AF
:10538000E75600082D570008715500081B56000805
:10539000E95400081D550008D75900086559000850
:1053A0009D590008BD5900084F5300084F5300088D
:1053B0004F5300084F5300087156000897560008D5
:1053C000B5560008A75500087C3EE0206379022E00
:1053D00000F2EF80DFE816F006010F011801E72E5A
:1053E00016D8E02EB3D9E13E062EB0D801A353F86B
:1053F00026F000BF695B00084F530008FB5A000805
:105400004F530008695B00084F5300082D5B0008EC
:10541000B6F5A44F9BD16379002B63D06C4B187801
:1054200000F081FE02285DD1002000F0DEFD0020AA
:1054300001F04FFA56E047F213039E4200F0A180BC
:10544000A6F5F046203EB3B20A2B80D80A2E3FF6CE
:105450007EAF01A353F826F0D35600086F5A000818
:105460004F530008CF5A00084F530008D358000884
:10547000B158000801580008495800089157000821
:10548000C557000847F61D639E423FF660AF47F6DA
:1054900004639E423FF65EAF47F603439E4200F030
:1054A000328247F616439E427FF451AF6279494BF0
:1054B000002A49D0484A1278002A0CBF29203520FA
:1054C0001A7000F017FD0DE0FEF7A0F90378032B2A
:1054D0007FF42AAF331FA02B04D9A6F1E003072BDA
:1054E0003FF622AF002732E7EB7803F00F030C2BD7
:1054F000F8D06379002BF5D0AB7803F00702032ACC
:1055000008D8013262F30203AB70FFF717FEFEF713
:105510003DFFE7E7042AF8D00422F3E7EB7803F035
:105520000F030C2BDED06379002BDBD0AB785E074A
:1055300003D1AB7823F00703E6E7DA1D62F3020339
:105540005C07AB70E1D1F4E71B78002B0CBF29207E
:10555000352000F0E5FCC5E76379002BC2D06B78FD
:1055600083F01002C2F3001262F304136B70CEE7F3
:1055700063791A4C002B00F0C98106F07DFF206092
:10558000B0E76379002B3FF4E2AE002330211A46E6
:10559000FF20FEF75FF80121FF20FEF773F8FF20E0
:1055A000FEF734F8D3E662790D4B02B101221A708E
:1055B00098E71BB100F09EFC1B2082E700F0B0FCD6
:1055C0001B20C6E7F2210020F6210020BC4100206C
:1055D000392200205E210020F3210020F821002044
:1055E000B54100201BB100F085FC062069E700F002
:1055F00097FC0620ADE71BB100F07CFC192060E7AA
:1056000000F08EFC1920A4E71BB100F073FC092008
:1056100057E700F085FC09209BE76379002B3FF4F6
:1056200096AE6220FEF7AAFA91E66379002B3FF46A
:105630008EAE01F0CAFD06F07BFF88E66379002B91
:105640003FF450AF012388F800304BE798F8003062
:10565000002B3FF47CAE6379002B3FF443AFB34A99
:1056600013780133DBB2032B88BF0023137039E7B3
:1056700063794BB1FCF7BEFD30B9E22000F0CAFD02
:105680002B2000F0C7FD62E6E22000F00BFE2B208D
:1056900000F008FE5BE663793BB1FCF7ABFD20B997
:1056A000E32000F0B7FD0B20EBE7E32000F0FAFD6C
:1056B0000B20EDE763793BB1FCF79CFD20B9E320BB
:1056C00000F0A8FD0720DCE7E32000F0EBFD072059
:1056D000DEE76379002B3FF405AF2B78DA4362F302
:1056E00000032B7013E76379914CEBB12178D9B9A2
:1056F0006B78402243F040036B7001258D4B1D7089
:105700008D4B9A618D4A107828B11170FEF73EFEDC
:1057100001232370E6E680229A6106F0ADFE884BF5
:105720001860884B1D70F1E70023F2E76379864E1D
:10573000FBB13578EDB9802201247F4B9A61834B10
:105740001C7006F099FE824B1860FF2346201A4613
:105750001946FDF77FFF29464620FDF7A9FF0322E2
:10576000FA214620FDF7BAFF4620FDF74FFF3470BF
:10577000B8E600233370B5E66379002B3FF4B2AE90
:105780002B7883F01002C2F3001262F30413A8E72F
:10579000FCF730FD054600287FF4A4AE6379002BAA
:1057A0003FF4D5AD05F01EF8D6287FF6D0AD2946DA
:1057B0001120FDF77DFF0322FA211320FDF78EFF54
:1057C0001320EDE6FCF716FD00287FF48BAE64791C
:1057D000002C7FF4BCAD05F005F85F283FF6B7ADAF
:1057E00021461320FDF764FF0322FA211120FDF763
:1057F00075FF1120FDF70AFF372004F0EBFF71E67B
:10580000FCF7F8FC054600287FF46CAE6379002BAA
:105810003FF49DAD04F060FF10F0800F4D4C0ED0B2
:1058200029461220FDF744FF0322FA211520FDF737
:1058300055FF1520FDF7EAFEA023A37087E504F0CD
:105840004BFF2030A07082E5FCF7D4FC0546002811
:105850007FF448AE6379002B3FF479AD04F03CFF50
:1058600020281FD829461520FDF722FF0322FA2100
:105870001220FDF733FF1220FDF7C8FE06F01CFCD6
:10588000C0F34004800703D50022324B9A705EE5D6
:10589000002320461A461946013403F067FA972C74
:1058A000F6D1F1E704F018FF2A4B203898704EE546
:1058B0006379002B3FF416AE04F0A4FE022805D154
:1058C0006B7823F020036B70FEF760FDFCF7B6FDEC
:1058D00008E66379002B3FF405AE04F093FE02283E
:1058E00005D16B7823F020036B70FEF74FFDFCF7BA
:1058F00083FDF7E52B78184A13F00E0318BF637980
:1059000003F00103B2E66379144C33E62360E9E562
:105910006379002B3FF4E6AD114B187800F003FCDF
:1059200002283FF4DFAD02207FE500BFF521002013
:105930005D210020ED21002000040040EA0D002040
:10594000E8210020EC2100205C210020E90D00204E
:10595000E4210020B9410020B4410020FC210020B6
:10596000392200206379002B3FF4BCADA8780021D8
:10597000C0F3C100FCF722FB0020AB7823F0180332
:10598000AB70FCF7E7FBFEF701FDA878C0F3C100A0
:10599000FCF702FC0020FEF787FCA3E56379002BEF
:1059A0003FF4A0ADA8780021C0F3C100FCF706FBCE
:1059B0000120AB7860F3C403AB70E2E76379002B9E
:1059C0003FF490ADA8780021C0F3C100FCF7F6FACF
:1059D0000220AB78EEE76379002B3FF483AD04F04F
:1059E00011FE2E287FF47EADFCF704FC614E0446C8
:1059F00090B9A878C0F3C100FCF7E2FB5E4B1C70C5
:105A000006F03AFD2246306021462046FCF782FB34
:105A10000320FEF749FC7AE50024A8780121C0F3B1
:105A2000C1003460FCF7CAFA2046F2E76379002B24
:105A30003FF458AD01226B7823F040036B704F4B5D
:105A40001A704FF480024E4B9A614E4B197811B187
:105A500000221A705BE5EB785A1C02F00F020C2A48
:105A600094BF62F3030361F30303EB704FE56379C3
:105A7000002B3FF437AD04F0C5FD2E28424C22D157
:105A8000FCF7B8FB68B1A878C0F3C100FCF762FB73
:105A9000A8780021C0F3C100FCF790FA0022364B31
:105AA0001A702879FF2808BF0D2004F0A7FDFEF723
:105AB0006DFC04F0EDFDC0F307232070C0F3074038
:105AC0006370A0700EE53148FCF7ECFBEFE76379FB
:105AD000002B3FF407AD0120FCF75EFC6B7843F030
