:020000040800F2
:1000000000040020B9010008BB010008BB01000882
:10001000BB010008BB010008BB010008BB010008D0
:10002000BB010008BB010008BB01000825C1000896
:10003000BB010008BB010008BB0100086FD5000828
:10004000BB010008BB010008BB010008BB010008A0
:10005000BB010008BB01000861D2000889D200087A
:10006000B1D20008D9D2000801D30008BB010008B2
:10007000BB010008BB01000805DC0008BB0100084B
:1000800029D30008BB010008BB010008BB01000820
:10009000BB010008BB010008BB010008BB01000850
:1000A000BB010008BB01000819D800082DD80008C2
:1000B000BB010008BB010008BB010008BB01000830
:1000C0008DD500088DD30008BB010008BB010008D6
:1000D000BB010008BB010008BB010008BB01000810
:1000E00072B6264880F30888254880F30988254899
:1000F00025490860022080F31488BFF36F8F0BF04E
:1001000047FD0BF0FFF84FF0553020491B4A914254
:100110003CBF41F8040BFAE71D49194A91423CBF24
:1001200041F8040BFAE71B491B4A1C4B9A423EBF9D
:1001300051F8040B42F8040BF8E700201849194A5B
:1001400091423CBF41F8040BFAE70BF025FD0BF0A0
:1001500020FD154C154DAC4203DA54F8041B8847BA
:10016000F9E706F04BF8124C124DAC4203DA54F8A2
:10017000041B8847F9E70BF00DBD000000040020C8
:10018000000C00200000000808ED00E00000002046
:100190000004002040000108000C00202015002071
:1001A00020150020E8460020E0000008E0000008DC
:1001B000E0000008E000000892E700F000F8FEE729
:1001C0002DE9F04FC1F80CD0C3689D46BDE8F08F13
:1001D000002383F311882846A04700200BF0A8FED7
:1001E000FEE70BF0FFFD00DFFEE7000053B94AB960
:1001F000002908BF00281CBF4FF0FF314FF0FF302F
:1002000000F076B9ADF1080C6DE904CE00F019F8F4
:10021000DDF804E0DDE9022304B07047430803F091
:100220005533C31A03F033309B0803F033331844BB
:100230004FF0013300EB101000F00F305843000E68
:1002400070472DE9F0478C46154604461E46089F28
:10025000002B40F0CB808A4248D9B2FA82F149B1F2
:10026000C1F120030CFA01FC20FA03F38D4043EAAC
:100270000C0C8C404FEA154EBCFBFEF8A8B20EFBEE
:1002800018CC08FB00F9230C43EA0C43994529D903
:10029000EB1808F1FF3204D2994502D9A8F1020205
:1002A0002B44A3EB0903B3FBFEFC0EFB1C330CFB3E
:1002B00000F0A4B244EA0344A04215D92C190CF171
:1002C000FF3304D2A04202D9ACF102032C44241A19
:1002D00043EA02401FB10023CC403C607B603146C2
:1002E000BDE8F0874246DCE76346F0E7002A73D0BA
:1002F000B2FA82F3DBB31E4602FA06F5C6F120031A
:1003000021FA03F24FEA154EB14020FA03F30B43F2
:10031000B2FBFEF100FA06F40EFB112CA8B201FBB1
:1003200000F81A0C42EA0C42904557D9AA1801F17C
:10033000FF3C04D2904502D9A1F1020C2A44A2EB61
:100340000802B2FBFEF10EFB112248439BB243EAC6
:100350000243984244D9EB1801F1FF3203D298428C
:1003600001D98A1E2B441B1A42EA0C4201E08B1A67
:1003700001224FEA154EB3FBFEFCA8B20EFB1C3364
:100380000CFB00F8210C41EA034398452AD9EB18ED
:100390000CF1FF3104D2984502D9ACF102012B4493
:1003A000A3EB0803B3FBFEFC0EFB1C330CFB00F0BD
:1003B000A4B244EA0344A04216D92C190CF1FF332D
:1003C00004D2A04202D9ACF102032C44241A43EA1D
:1003D0000140314616467DE71F268DE78C46AEE785
:1003E0000A46C0E76146DBE76346EFE78B4206D982
:1003F00017B90026304672E7C7E90001F9E7B3FAFA
:1004000083F686B98B4201D3824207D8841A61EB06
:10041000030301209C461FB9002660E73046FAE737
:10042000C7E9004CF8E7C6F1200CB34022FA0CF4FF
:100430001C434FEA144921FA0CF3B3FBF9F820FAF4
:100440000CF5B14029431FFA84FE00FA06F509FBBA
:10045000183008FB0EFA0B0C43EA00439A4502FAE7
:1004600006F240D9E31808F1FF3004D29A4502D9C8
:10047000A8F102002344A3EB0A03B3FBF9F809FB3C
:10048000183308FB0EFE89B241EA03418E452CD990
:10049000611808F1FF3304D28E4502D9A8F1020396
:1004A000214443EA0040A0FB0298A1EB0E01414524
:1004B000CE46434602D306D14D4504D2B9EB020ED7
:1004C00068EB04030138002FA6D0B5EB0E0261EBF8
:1004D000030101FA0CFC22FA06F34CEA0303F14093
:1004E000C7E9003198E74046C5E74346D9E7000031
:1004F000704700BF034613F8012B002AFBD1181ADE
:100500000138704710B51F220446002102480DF043
:10051000A6FE00F8014C10BD211500202021014845
:1005200001F014BB20150020014B1878704700BF64
:10053000401500201F29F8B563D90378213B072B0C
:100540005FD8DFE803F0040C1A1C414B52582120FD
:10055000FFF7D8FF00222C4B5A709A7008E0222037
:10056000FFF7D0FF0122284B5A7000229A70062212
:10057000DA70FFF7D3FF0120F8BD2320E8E7867883
:10058000092E06D92420FFF7BDFFFE221E4B5A700C
:10059000EFE74578AB19522B10DC00271B4BC41C2E
:1005A0001D44FBB29E42E6D915F8010BA378627890
:1005B0002178033406F002FF0137F2E72420FFF729
:1005C000A1FFFD22104BE2E70122114B2D201A70F2
:1005D00008F082FB2520FFF795FFCAE700220C4BAD
:1005E0001A7008F07DFB2620F5E72720FFF78AFF29
:1005F0005222054BCBE72820FFF784FF0222024B53
:10060000C5E70020B8E700BF2015002014F000085F
:1006100040150020032806D8B42202FB00F102484E
:10062000243105F04DBE704741150020032838B530
:100630000FD80A4A1378012B4FF0000309D15578DF
:10064000A84208D1137009B9012038BDFFF7E2FFB5
:10065000FAE70020F9E71846F7E700BF000C002092
:10066000F7B504460F4608F0BFFB2D4D2D4E6880B0
:100670005FFA84FC674550D900212B4A11E090F8BD
:1006800000E0BEF1FF0F01D0E6451AD00133DBB226
:100690000F2B00F10100F2D10131062902F10F0206
:1006A00039D010460023EAE7012906D1012B04D1F5
:1006B0000022AB78ADF8002015E06B88ADF80000A3
:1006C00011E032683AB31E2000FB012232F8131009
:1006D00032F81300090A12F8133040BAE4D1002BA3
:1006E000EBD1ADF800308DF80230009806F062F9D9
:1006F000C0F307238DF80400C0F307408DF80530E0
:100700008DF806009DF8063020469DF804209DF8DF
:10071000051006F053FE0134AAE703B0F0BD00BF98
:10072000000C0020F8150020920D00202DE9F0416A
:1007300005460E469046002400F12407B44201D13C
:10074000BDE8F0812B19B3F5347F06D2381905F0D6
:100750006FFD08F804000134F0E70020F9E72DE907
:10076000F04105460E469046002400F12407B442AD
:1007700001D1BDE8F0812B19B3F5347F04D218F80C
:100780000410381905F0B6FD0134F0E741EA020320
:10079000184370B405D170BC0146B4220A480DF06C
:1007A0005EBD00241E260F2306FB04F50648013B10
:1007B00013F0FF03017042702844F8D10134062C75
:1007C000F1D170BC704700BF41150020032806D846
:1007D000B42202FB00F10248243105F0B9BD704794
:1007E00041150020074B084A10B51A600023074C3A
:1007F0002370607008F0F8FA60806078BDE81040FF
:10080000FFF7E4BFF815002041150020000C002080
:10081000032808B50CD8074A5070FFF7D7FF08F037
:1008200075FA2E2802D02E2008F06CFA012008BD9F
:100830000020FCE7000C0020032808B511D80A4B63
:10084000197871B9012158701970FFF7BFFF08F0CE
:100850005DFA2E2801D1012008BD2E2008F052FAA1
:10086000F9E70020F8E700BF000C0020024B1878E1
:10087000431E584258417047000C002070B5124B7F
:100880001B78012B1DD1114A12688AB11E244878A9
:1008900004FB002208780E4932F810400D460E88FD
:1008A000A64207D103F0070335F8133022F81030C1
:1008B000012070BD0133092B01F10201EFD10023AA
:1008C000F4E70020F5E700BF000C0020F815002039
:1008D00004F200084FF434722421014805F0F0BC02
:1008E00068F3000838B50024074D08F00FFA2B789C
:1008F000834206D00134192C05F10105F5D1002001
:1009000038BDE0B2FCE700BFEBF1000808B5FFF727
:10091000E9FF00F53E7005F08BFC082828BF002099
:1009200008BD000038B50446FFF7DCFF104B1B780C
:10093000012B07D019230130C0B2B0FBF3F203FB47
:100940001200C0B20B4B185C207008F0DBF9FFF707
:10095000DDFF094B13F8104003EB40035D7808F00E
:1009600043FA294602462046BDE8384008F015BA49
:10097000000C0020EBF10008D6F10008032810B5A8
:1009800004460AD8FFF722FF20460121FFF74EFE5A
:100990002046BDE81040FFF73BBF10BDB4235843CD
:1009A000C1EB01111144243000EB410070470328D2
:1009B00038B510D805290ED80E2A0CD8FFF7EEFF4F
:1009C000054605F035FC0446681C05F031FC44EA98
:1009D000002080B238BD0020FCE7032870B51C461B
:1009E0000FD805290DD80E2A0BD8FFF7D7FF0546DB
:1009F000E1B205F07FFC210A681CBDE8704005F0FB
:100A000079BC70BD08B54FF43E7005F011FC0828A4
:100A100028BF002008BD000070B508F077F9072353
:100A2000144A1178814223D0013B13F0FF0302F1F5
:100A30000102F6D10724FFF7E5FF0130C0B2B0FB99
:100A4000F4F304FB13000C4BC4B213F8105003EB87
:100A500040035E7808F0C8F931460246284608F09F
:100A60009CF921464FF43E7005F00AFC204670BD0B
:100A70000624E0E7E4F10008D6F1000870B5FFF7BE
:100A800045FF044607281CBF0B4B1C5C0B4B13F89F
:100A9000145003EB44035E7808F0A6F93146024691
:100AA000284608F07AF9FFF71DFF2146BDE870409F
:100AB00000F53E7005F0E4BBCFF10008D6F1000868
:100AC00070B5FFF723FF044607281CBF0B4B1C5CC7
:100AD0000B4B13F8145003EB44035E7808F084F9D1
:100AE00031460246284608F058F9FFF7FBFE21463A
:100AF000BDE8704000F53E7005F0C2BBC8F10008CB
:100B0000D6F100087FB51E4B1B78002B33D0002296
:100B10001146104606F0BEFC00250A2601AC0A224A
:100B2000184901A80DF0E8FB01F0AEF90378EAB22C
:100B3000B3FBF6F3934200D8FDB901F0A5F90378B1
:100B4000312B04D900239622194620780CE001F0BD
:100B50009BF903461B7820781D2B4FF0000387BFBD
:100B6000962219461A469621013506F027FC0A2DD1
:100B700004F10104D3D104B070BD00231A46E3E7A9
:100B80009441002066F000082DE9F0430C4615461C
:100B900089B00C2847D8DFE810F00D0049007F002D
:100BA000BE0042014D015B01690174017F018A01B0
:100BB000AF01BB01C54FC64E38680AF009F80E28D0
:100BC00005D909F0C1FF338838600333338005EB62
:100BD000850525446FF007084724FF2708FB04F329
:100BE000328803F596631344B3FBF7F213448DF890
:100BF00004308DF805708DF80650019805F0DAFE86
:100C0000C0F30721C0F307438DF808008DF80910E1
:100C10008DF80A30C2B2DBB22046C9B2013406F008
:100C2000CDFB972CDAD109B0BDE8F083A94FAA4ECD
:100C3000386809F0CDFF0E2805D909F085FF338803
:100C400038600333338005EB85052544FF270024F6
:100C500033888DF8057003EBC403B3FBF7F213443C
:100C60008DF804308DF80650019805F0A3FEC0F30E
:100C70000721C0F307438DF808008DF809108DF89F
:100C80000A30C2B2DBB204F14700C9B2013406F047
:100C900095FB502CDCD1C6E7904F914E386809F097
:100CA00097FF0E2805D909F04FFF338838600333CA
:100CB000338005EB850525444FF00C080024FF2701
:100CC000282C8CBFA4F12802C4F128023388D2B2A8
:100CD00008FB0233B3FBF7F213448DF804308DF8B0
:100CE00005708DF80650019805F064FEC0F30721E9
:100CF000C0F307438DF808008DF809108DF80A300D
:100D0000C2B2DBB204F14700C9B2013406F056FBAF
:100D1000502CD5D187E705220023B1FBF2F2032D39
:100D20008DF809308DF80A308DF80D30ADF810309F
:100D30008DF813308DF814308DF817308DF8183089
:100D40008DF81B30674F4FEA51038DF81D308DF839
:100D50001E308DF81F3098BF634B8DF80C2038681B
:100D6000A1EB45028DF808108CBF0F255D5D8DF855
:100D70000B108DF80E208DF80F208DF812108DF8C5
:100D800015208DF816208DF819108DF81A208DF881
:100D90001C2009F01DFFA842544E554D0FD309F0F9
:100DA000D3FE544A2B781178386069B30133DBB233
:100DB000A34201D22B7002E000232C7013704FF07D
:100DC0004709337803EB430320336B4413F8186C63
:100DD00013F8177C13F8168C2978484601FB08F3A2
:100DE00001FB07F27143B3FBF4F3B2FBF4F2B1FB86
:100DF000F4F1DBB2D2B2C9B209F1010906F0DEFAB0
:100E0000B9F1970FE8D10EE70BB1013BD2E7012111
:100E1000337811700B4403F007033370CFE7472595
:100E2000002328461A462146013506F0C7FA972DB9
:100E3000F6D1F8E605264725B1FBF6F6284600234D
:100E400032462146013506F0B9FA972DF6D1EAE689
:100E50004724A1EB8205EDB2204600232A4629460D
:100E6000013406F0ABFA972CF6D1DCE647250023D7
:100E7000284622461946013506F0A0FA972DF6D1EC
:100E8000D1E647252846234622460021013506F0B3
:100E900095FA972DF6D1C6E6472500222846234627
:100EA0001146013506F08AFA972DF6D1BBE64724A4
:100EB000A1EB8205EDB220462B46002229460134E3
:100EC00006F07CFA972CF6D1ADE600BF181600208C
:100ED00014160020101600200C1600200816002002
:100EE000041600200016002014F20008FC15002053
:100EF000FD150020040C002047254C0828462346F9
:100F000022462146013506F059FA972DF6D18AE698
:100F10004724002320461A461946013406F04EFAAB
:100F2000972CF6D17FE600BF38B50D460D4C78B151
:100F300009F00AFE0C4B20601B7883B100F0C8FA60
:100F400058B100F0C5FA0022114600F007FA04E09B
:100F5000206809F03DFE3228EAD8002038BD2B7009
:100F6000FBE700BF201600208A200020014B1860FC
:100F7000704700BF2416002070B500F081FF454C7B
:100F8000027823789A4206D000F07AFF0022037894
:100F90002370414B1A6001F01BFE0138C0B20628D5
:100FA00096BF3E4B002653F8206000F069FF03789F
:100FB000032B06D8DFE803F0024C33070022364B40
:100FC0001A60012070BD344D2C6894B909F0BCFD45
:100FD000334B28601A78002AF3D01C7000F078FA9E
:100FE000054600F075FA22460146284602F0E4F86C
:100FF000E7E7204647F22F5609F0EAFDB042E0D974
:10100000FFF734FC0028DCD109F09EFD2860112098
:1010100001F0E9F844F620600AF08FFF14E00125A2
:101020001D4C1F4B20681D7018B909F08DFD206004
:10103000C7E709F0CDFDB042C3D3FFF717FC002886
:10104000BFD109F081FD2060012000F073FCB8E7FA
:10105000114C2368002BE8D000F03AFA062809D09A
:1010600000F036FA012805D000F032FA022801D04B
:1010700000F02EFA206809F0ABFD47F22F5398429A
:101080009FD9FFF7F3FB00289BD109F05DFD20609D
:10109000BDE700BF1D1600202416002018F200082E
:1010A0001C16002007B58DF807100DF10701FFF79A
:1010B0003BFFFFF761FF002003B000BD2B4B2DE984
:1010C000F0411B78BBB10F254FF00108284E56F8B0
:1010D000041B4B1C0BD021F00F0701F00F0108FA85
:1010E00001F40122214638460CF0D0F9BC61013DE3
:1010F00015F0FF05EBD1002280214FF080400CF06D
:10110000C5F900BF00BF00BF00BF00BF00BF00BFE8
:1011100000BF00BF00BF00BF00BF00BF00BF00BFD7
:1011200000BF00BF00BF00BF00BF00BF00BF00BFC7
:1011300000BF302585F31188012207214FF0804040
:101140000CF0C4F9002484F3118885F3118801227E
:101150000C214FF080400CF0B9F984F31188BDE800
:10116000F041062123200BF012BF00BF8820002091
:1011700034F20008072804D0122804D1042000F01B
:10118000B9BB0320FBE7704708B54FF080724FF002
:1011900080439A614FF0007240219A610F4800220B
:1011A0000CF074F9002280210C480CF06FF94FF418
:1011B00080030A4A93610022094B1A70094B1B787D
:1011C0005BB1112001F00FF844F620600AF0B5FE83
:1011D000BDE80840022000F08DBB08BD00040040BF
:1011E000712000208820002010B5084C237863B1BE
:1011F00000F086FB033801289DBF002303202370E5
:101200000220BDE8104000F067BB10BD8820002020
:1012100010B5044609F098FC3B4B186023780A2B64
:1012200066D006D8072B36D0082B10D0FF232370AA
:1012300018E0212BFAD16278344B002A5FD0A178D4
:101240001A78002958D042F080021A700AE0A37878
:10125000013B032BEAD8DFE803F00206091201F094
:10126000B7FCE07010BD0423E370FBE762792179DD
:10127000E078FFF79CFBA071000AE071F2E7E078EC
:101280002379617940EA032040BAA21D80B2BDE80B
:101290001040FFF74BBAA378013B032BC6D8DFE819
:1012A00003F0020B101BE0780728DBD801F098FC54
:1012B000BDE8104001F09CBBE078BDE81040FFF7AE
:1012C0005DBBE279A3792179E07843EA0223627970
:1012D000BDE81040FFF781BBE0782379617940EAEF
:1012E000032040BAA21D80B2BDE81040FFF737BA14
:1012F000BDE8104002F006BB61F3C712A5E71B78FA
:10130000C3F3C013A370ADE724160020B64100203C
:1013100038B50C46054609F017FC074B2146186006
:101320002846FFF707F9044620B92B780A2B01D18C
:1013300002F0E8FA204638BD2416002008B500F077
:101340009FFD0378022B03D100F0A2FD007808BDB9
:101350000020FCE700F084BD70470000F8B515469A
:10136000B0FA80F3B1FA81F25B0952099A4206465B
:101370000C4605D000290CBF0120022000F038FAED
:101380000F4F3B78A34200D13DB100F079FD03231C
:10139000037000F07DFD002303703C7004F016FB29
:1013A0002946204600F0E2FF2A462146304601F059
:1013B00003FF2A4621463046FFF7CEFFF8BD00BFA7
:1013C0003B16002037B5054600F05AFD0378012B87
:1013D0000DD00024CDE9004400F052FD0378022B2B
:1013E00007D0094B224619780846FFF7B7FF03B02C
:1013F00030BD25B10822294668460CF07DFF6846BD
:1014000000F05CFEF3E700BF3B16002037B5044652
:1014100000F036FD0378012B0ED0002500958DF8E5
:10142000045000F02DFD0378022B07D00D4B2A4607
:1014300019780846FFF792FF03B030BD74B16378A6
:101440008DF80030A3788DF80130E3788DF8023004
:1014500063798DF8033023798DF80430684600F005
:1014600087FEE9E73B16002037B5044600F008FD8B
:101470000378012B0DD00025ADF8065000F000FDDB
:101480000378022B07D0114B2A4619780846FFF73C
:1014900065FF03B030BD002CFBD0A278637843EA2F
:1014A0000223ADF80630813B022B09D801220DF151
:1014B000060002FA03F3ADF8063000F045FEE8E757
:1014C0000DF1060000F02BFEE3E700BF3B16002005
:1014D000014B1878704700BF3B16002010B5174C21
:1014E00000232278032A26D8DFE802F0020C151E1A
:1014F0000A2213490846CB708A7009F061F901236A
:10150000237010BD0E4A9370F6231046D37009F075
:1015100057F90223F4E7F62209490846CB708A708E
:1015200009F04EF90323EBE7054A93700A231046AE
:10153000D37009F045F90023E2E700BF321600201E
:101540002C1600207047000010B5FFF7FBFF00F0DD
:10155000CFFA00F0A7FC01F0F1FB00F065F90128DB
:1015600003D1BDE8104000F065B900F0AFF968B9EB
:10157000074C206809F02CFB40F6B733984205D998
:1015800000F05AFF10B109F0DFFA206010BD00BF73
:10159000281600202DE9F04F8FB00E220021824640
:1015A00002A80CF05CFE00F06BFC0378012B0AD063
:1015B00000F066FC0378022B08D0594B0022197802
:1015C0000846FFF7CBFE0FB0BDE8F08FBAF1000F71
:1015D00000F09D804FF01E0800262022514606A8EC
:1015E0000CF08AFE4F4F9DF819300DF119043B7035
:1015F00014F8010FFEF712FE08F1FF38304418F01E
:10160000FF08C6B2F4D14FF0060BDFF81C9119F8B1
:10161000013F7BB300242246D3B29E4206D899F8FC
:101620000030A34218BF89F800801EE000230DF1AE
:10163000190111F8010F10B901331E2BF9D11C4605
:1016400038336B4413F81E0C019203F0C5F840EADE
:10165000C404E4B2214606A809F078F999F80030EC
:10166000019AA34202F10102D6D10BF1FF3B1BF01C
:10167000FF0BCCD12022514606A80CF03DFE4FF0C6
:1016800000084FF001095FFA88F39E420AD800F083
:10169000EDFA002841D1234809F080F802A800F0B3
:1016A00025FD90E700230DF1190212F8011F11B971
:1016B00001331E2BF9D11C4638336B4413F81E0C32
:1016C00003F08AF840EAC404E4B2214606A809F00F
:1016D0003DF90023144A12F8011FA14202D021B99A
:1016E0003B449C7008F10108CDE70133062BF2D191
:1016F0006F2CF7D80EAB03EBD40313F8302C04F0A7
:10170000070409FA04F4144303F8304CEAE708220A
:10171000514604480CF0A3FDB9E7FFF715FFB6E703
:101720003B160020331600203416002008B5064B67
:101730001B7823B9054B1B780BB1FFF7CFFEBDE833
:101740000840FFF701BF00BF3B1600209541002075
:1017500070B5044658B109F00FF80C4B984205D00B
:10176000184609F003F80122094B1A7070BD00F009
:1017700087FB0378022BF9D1044D20466B6898470C
:101780002046AB68BDE87040184700BF080C002039
:10179000DC0F002038B5044688B108F0EDFF114C8D
:1017A000A0421ED00122104B1A7001F06DFA0F48B2
:1017B00009F02AFD2046BDE8384008F0D7BF0B4BA2
:1017C0001B78042B05D1074D6B6898472046AB6802
:1017D000984706480BF01BF904480BF021FD01F077
:1017E0005BFA38BDE00F0020923C002094460020B8
:1017F00010B50C4B04461A78824204D001281870A8
:1018000002D0022807D010BD0020FFF7A1FF20461C
:10181000FFF7C0FFF7E70020FFF7BCFF0120FFF74D
:1018200097FFF0E71C0C0020014B1878704700BFB1
:101830001C0C002010B50E4B0E4C1B78052B13D141
:10184000206810B909F080F9206009F0C1F941F66B
:10185000573398420AD9002301202360064BBDE884
:101860001040187000F066B80023236010BD00BF60
:10187000944600203C1600209641002010B50B4CE9
:101880002378052B10D1B4F84C309B0708D509F00C
:101890000BF928B120460BF045F905480AF04DFB3D
:1018A000BDE8104009F022B910BD00BF94460020E9
:1018B000A086010008B5044B1B78012B01D1FFF76E
:1018C000DDFF012008BD00BF1C0C0020014B187873
:1018D000704700BF48160020014B1870704700BFCA
:1018E0004816002008B509F02FF9014B186008BD13
:1018F00044160020014B1870704700BF42160020AC
:10190000014B1878704700BF42160020302310B5F5
:1019100083F3118800F0C0FD002484F3118872B6AF
:1019200000F0F0FE00F046FE04F080FB84F3118826
:1019300062B610BD014B1870704700BF4116002001
:1019400010B5074C237828B11BB1FFF7CBFF032359
:10195000237010BD002BFCD10122024B1A70F8E756
:1019600048160020411600200F4B70B51E6801F08C
:10197000E3F90E4D044618B900232B7000240AE049
:10198000FFF7A6FD18B90A4B1B78042BF4D02B786F
:101990001BB100232B70204670BD002EEED004F04A
:1019A0000FF8B042EAD3F4E7200C002041160020E3
:1019B0009446002010B5FFF78BFD70B9084B1B78DB
:1019C0005BB9084C2378012B07D001F065F920465C
:1019D0000BF026FC20460BF01AF8012010BD00BFCA
:1019E000992000209446002008B5FFF7E3FF38B1A6
:1019F000044B186809F0ECF8C72894BF00200120B8
:101A000008BD00BF441600200120704708B5FFF74D
:101A1000FBFF38B1044B186809F0DAF8C72894BF07
:101A20000020012008BD00BF4416002070B5FFF75C
:101A30004FFD044668B9084E3578012D09D101F0F3
:101A400023F9304609F0E0FB224621462846FFF7FD
:101A500085FC012070BD00BF9446002008B5FFF74B
:101A6000E5FF38B1044B186809F0B2F8C72894BFF5
:101A70000020012008BD00BF441600207047000070
:101A800008B507F001F9003818BF0120044B1870A1
:101A900007F0EAF809F021F8FFF7F0FF08BD00BFF2
:101AA00040160020002310B5074C2370FFF76CFB95
:101AB000FFF72CFF2378054A022B18BF032313706E
:101AC000FFF792FB10BD00BF421600204816002011
:101AD00008B5064B1B780BB107F0B4F809F006F80F
:101AE00001F0B6FDBDE8084003F070BF40160020CD
:101AF00010B5154C2378032B1BD8DFE803F0020A3E
:101B0000131BFFF731FFA0B1FFF7ECFE0123237099
:101B10000FE0FFF769FF60B1FFF7B2FFFFF7E2FEEA
:101B20000223F4E7FFF772FF18B1FFF7DBFEFFF7C0
:101B3000B9FF10BDFFF792FF0028FAD0FFF7C8FFEA
:101B4000FFF7D0FE0023E2E748160020202938B531
:101B500005460C4610D1FFF767FE012806D1224644
:101B60002946BDE83840022009F092BB21462846AC
:101B7000BDE8384000F0D9BB38BD08F018BD000002
:101B8000054A064B06495A60116051609A60DA6056
:101B9000002219611A707047301E00204C16002078
:101BA000601600202DE9F041164C0F466668A568C6
:101BB00006F59C784545E36804D19E4206D1002095
:101BC000BDE8F08105F108029342F7E70E4B226968
:101BD0009A1A312A9CBFA3F2CF732361322FEED819
:101BE00001463A4620690CF087FB454500EB0703A8
:101BF000286023616B6002D1A6600120E0E7083510
:101C0000A560FAE74C1600202F1E0020074A10B5E9
:101C1000D3689268934207D0D3E90014641A22462D
:101C20000CF06AFB204610BD0024FBE74C16002098
:101C3000074BDA6899688A4208D0596801F59C70A8
:101C4000824201D1D96070470832DA60704700BF24
:101C50004C160020014B1878704700BF4C1600202E
:101C6000014B1870704700BF4C160020034BD8681A
:101C70009B68C01A18BF0120704700BF4C16002097
:101C8000104900230A4610B50C7C844212D11C2155
:101C900059435018806850B1FF28515808D0484324
:101CA0004000411C1C2000FB03220120516010BD9C
:101CB0000131F7E701330A2B01F11C01E4D10020C7
:101CC000F5E700BF740C0020F0B50A4E002534463D
:101CD000377C874207D11C2000FB05404176027605
:101CE00083760120F0BD01350A2D06F11C06EFD1E7
:101CF0000020F7E7740C0020094A30B50023144691
:101D0000157C854205D11C22012002FB0344A16001
:101D100030BD01330A2B02F11C02F1D10020F7E79C
:101D2000740C0020094A30B500231446157C854206
:101D300005D11C22012002FB0344616030BD013348
:101D40000A2B02F11C02F1D10020F7E7740C0020ED
:101D500070B50B4C00232546267C864209D11C20F9
:101D60004343E818E95000238260C36043740120B4
:101D700070BD01330A2B04F11C04EDD10020F7E7FC
:101D8000740C002070B500252E462B4C6368002B88
:101D90004FD0E06808BB637CB3FA83F35B096374DC
:101DA00008F0D2FED4E900239342E0602BD26660B3
:101DB0006674E66063690BB1207C9847207CFF283D
:101DC00024D100221146104605F064FB0735462D4C
:101DD00004F11C04DAD1012070BD08F0F9FE23687B
:101DE0009842D8D26368002BE4D0204600F09CFDD6
:101DF0000028EBD0637C207CB3B1FF280CD1A27EFD
:101E0000217E607EE0E79B1A6360EBE79628DDD8D1
:101E100000231A46194604E09628D7D8A37E227ECE
:101E2000617E05F0CBFAD1E7FF28CAD09628CDD83D
:101E3000EFE76374E360C9E7740C002002460023F7
:101E400030B5441812F8015BA2422B44FAD1435436
:101E500030BD0120704708B5FFF7FBFF08BD00004B
:101E600008B54FF4E13008F0BBFFFFF789FEBDE88D
:101E700008402422002101480CF0F1B9C41F0020C1
:101E800000487047240C002000487047270C0020B1
:101E900000487047250C002018B111B189B208F034
:101EA000CFBF704773B5FFF7D5FE03280FD8DFE823
:101EB00000F040022D3B774B186808F089FE0A2895
:101EC00005D900220220744B1A70FFF7C9FE734D2A
:101ED000734C08F0BFFF002856D008F0A7FF2A680F
:101EE000012A38D0022A3ED0002A5BD161282FD89F
:101EF0005F2804D8A0F15A03DBB2032BE9D80123F1
:101F000002222B60674B20701A70E2E7624A137856
:101F10000133DBB2282B02D813700020D5E7002351
:101F20001370FFF785FEF8E7FFF782FE0020FFF74A
:101F300097FE5D48FFF76AFE01460028C7D05A4861
:101F4000FFF7AAFF08F000FE524B18600120BCE723
:101F5000AF28BED1D3E70223524A2B6013786070BA
:101F6000013B1370B5E72378612B0FD163780D2BFC
:101F700018D10A2816D1FFF76DFE012802D10320DF
:101F8000FFF76EFE00232B6002B070BDAF2B09D1AE
:101F90006378602B06D103232B60424BA070013085
:101FA000187096E73F49531C2B600B78A054013BF7
:101FB000DBB20B70002B8CD11946394810F8016B3D
:101FC000013133448A42DBB2F8D8A25C9A422AD16A
:101FD0000322364901A80CF08FF9032101A808F06B
:101FE0002FFF20462978FFF736FF0028CCD0237832
:101FF000602B0AD8592B16D95A3B062B13D8DFE889
:1020000003F015193A3E12124200AF2B0BD1A678FD
:10201000202E08D12649324626480CF06DF931466B
:102020002448FFF7AAFD00232B6052E76278224B79
:102030005A70F8E76378313B052BF4D801A252F8C7
:1020400023F000BF5D200008652000086B20000819
:102050002720000827200008712000080122164BC5
:102060001A70E0E70222144BFAE70322124BF7E75B
:102070000422114BF4E762780F4BDA70D3E76278F1
:102080000D4B9A70CFE76078431E58425841FFF7D6
:1020900057FCC8E77C1F0020781F0020741F002019
:1020A000A01F0020701F0020C41F002071F0000836
:1020B000A31F0020801F0020240C00201FB5002338
:1020C00001930293ADF80C30A123082201460DF1D3
:1020D00005008DF804300CF00FF901A80921FFF775
:1020E000ADFE0A21FFF75EFD05B000BD1FB5044639
:1020F0001022002168460CF0B2F8A2230E222146DD
:102100000DF101008DF800300CF0F6F868460F2153
:10211000FFF794FE1021FFF745FD04B010BD00232A
:1021200007B50193A323022201460DF105008DF8A6
:1021300004300CF0E1F801A80321FFF77FFE042131
:10214000FFF730FD03B000BD4FF0000307B58DF879
:102150000630A4238DF804300378022101A88DF8FD
:102160000530FFF76BFE0321FFF71CFD03B000BD38
:10217000002307B50093ADF804308DF80630A8238E
:10218000052201460DF101008DF800300CF0B4F885
:1021900068460621FFF752FE0721FFF703FD03B053
:1021A00000BD30B5054687B01522002168460CF009
:1021B00056F82846FEF79EF9C4B2122C11D8A9236E
:1021C000224629460DF102008DF800308DF80140BD
:1021D0000CF092F8A11C6846FFF730FE1521FFF7BE
:1021E000E1FC07B030BD4FF0000307B58DF80630B5
:1021F000A6238DF80500022101A88DF80430FFF711
:102200001DFE0321FFF7CEFC03B000BD4FF000031D
:1022100007B58DF80630A7238DF80500022101A827
:102220008DF80430FFF70AFE0321FFF7BBFC03B073
:1022300000BDB32307B58DF80100801A4D388DF825
:1022400002108DF80400052168468DF800308DF8E5
:102250000320FFF7A7FC03B000BD000007B5032271
:10226000044901A80CF048F8032101A8FFF79AFCE3
:1022700003B000BD84EF000830B50C468FB00546B2
:102280003122002101A80BF0EAFF2E2C11D8AB233C
:10229000224629460DF106008DF804308DF80540E0
:1022A0000CF02AF8A11C01A8FFF7C8FDE11CFFF7FC
:1022B00079FC0FB030BD30B50C468FB005463122E9
:1022C000002101A80BF0CBFF2E2C11D8AC23224605
:1022D00029460DF106008DF804308DF805400CF00C
:1022E0000BF8A11C01A8FFF7A9FDE11CFFF75AFCA0
:1022F0000FB030BD1FB5002304220293ADF80C309F
:10230000AD2340EA014001900DEB02010DF10900FF
:102310008DF808300BF0F0FF02A80521FFF78EFDC5
:102320000621FFF73FFC05B000BD30B50C468BB071
:1023300005462422002101A80BF091FF202C12D188
:1023400046F2AF13224629460DF10700ADF80430DE
:102350008DF806400BF0D0FF232101A8FFF76EFD9A
:102360002421FFF71FFC0BB030BD000010B50C4658
:10237000062851D8DFE800F004212C353E4709003B
:102380001120BDE81040FFF72EBF3020FFF72BFFD4
:10239000002C41D00A212148FFF76EFF2821204858
:1023A000FFF789FF43F22D404EF21A51FFF7A2FFCB
:1023B0005220FFF718FF5120E3E73120FFF713FF0A
:1023C00054B35220FFF70FFF1648FFF7EAFEF2E77B
:1023D0003220FFF708FFFCB15220FFF704FF12483C
:1023E000F3E73320FFF7FFFEB4B15220FFF7FBFE07
:1023F0000E48EAE73420FFF7F6FE6CB15220FFF7F3
:10240000F2FE0B48E1E73520FFF7EDFE24B1522044
:10241000FFF7E9FE0748D8E710BD00BF70F20008DB
:102420007AF2000875F000087FF0000889F00008D3
:1024300093F000089DF0000808B5FFF717FC20B9DD
:102440005320FFF7D0FE012008BD0020FCE700006C
:1024500010B5C4B20B2C0CBF02200120FFF74AFAC2
:102460002046FEF787FE0AF0EAFF4FF0FF32014BED
:102470005A6110BD001800400023054A0549C2E911
:1024800000130133102B02F10802F8D1704700BF8E
:1024900050440020512400082DE9F041FFF7ECFFE3
:1024A00000254FF001083F4E56F8041B4A1C0CD083
:1024B00021F00F0701F00F0108FA01F4214605226F
:1024C000384624040AF0E2FFBC610135EDB20F2D5D
:1024D000EAD1062401263027334D55F8040B431C5E
:1024E0002ED000F00F01202206FA01F120F00F009B
:1024F0000AF0CCFF00BF00BF00BF00BF00BF00BF9D
:1025000000BF00BF00BF00BF00BF00BF00BF00BFD3
:1025100000BF00BF00BF00BF00BF00BF00BF00BFC3
:1025200000BF00BF87F3118855F8040C022200F0A9
:102530000F0120F00F000AF0C9FF002383F3118878
:10254000013C14F0FF04C8D122464FF40061174843
:102550000AF09CFF00BF00BF00BF00BF00BF00BF6C
:1025600000BF00BF00BF00BF00BF00BF00BF00BF73
:1025700000BF00BF00BF00BF00BF00BF00BF00BF63
:1025800000BF00BF302383F3118803220B210748CB
:102590000AF09CFF84F31188FEF790FDBDE8F0413E
:1025A0000AF02EBF00F300083CF3000800080040CA
:1025B0007047000008B508F0A5FE0322214B224910
:1025C0009A620C22DA62D1F89020204822F0180298
:1025D000C1F8902000229A62DA62D3F8402C03F509
:1025E000406342F480721A641A6C4FF4006142F046
:1025F00002021A6401225A63DA67DA6608225A6113
:102600005A695A615A6942F001025A619A6C42F45D
:10261000C0629A649A6CDA6C42F00802DA64DA6C8E
:102620009A6C42F480529A649A6CDA6C42F010020E
:10263000DA6440F28232DB6C0AF028FFFFF7B8FF61
:1026400008BD00BF00000140000401400008004038
:102650004FF0E022136910B523F001031361234A00
:10266000234B01245A6100220021930003F16043AF
:1026700003F56143D3F80001012994BF002000F065
:10268000010008B1C3F8804101312029F2D10132A3
:10269000082AE9D1174C636843F000736360164B56
:1026A0001A6802F009021A601A6842F46C3242F0A9
:1026B00004021A6040F2B3321A62104B43F0010375
:1026C0009847236943F00403236130BF0C4B43F068
:1026D000010398474FF0E022236923F004032361AC
:1026E000136943F00103136110BD00BFFFFF070032
:1026F0000018004000ED00E000000140D8F20008A2
:10270000A4F20008FFF7A4BF38B51A4D04462B7891
:10271000042B1BD8DFE803F003280E1F280000233A
:102720001A461946FFF7D0FAFF2232212046FFF75A
:102730000FFB0BE0FF231A461946FFF7C5FA0322E9
:10274000FA212046FFF704FB01232B702046BDE849
:102750003840FFF795BAFF231A461946FFF7B4FA37
:1027600001224FF4FA71E1E700232B70FFF7CCFF51
:10277000ECE700BF72200020F8B53B4B04461D7803
:102780003A4F3B4ECDB13B4B3B4A1B7873B10023D4
:102790001360012219463270FF223B70FFF794FA52
:1027A000FF220A212046FFF7D3FA42E013600122FC
:1027B000FF2132703B701A46F0E7FFF765FB0378A4
:1027C0000F2B42D833783D70C3B32A462B46FF21E6
:1027D0002046FFF779FA01224FF4FA712046FFF7FD
:1027E000B7FAFFF751FB03781BBB234D286818B9D4
:1027F00008F0AAF92860E0B108F0EAF946F2A81357
:10280000984216D902F036FB286890B108F0E0F93A
:1028100046F2905398420CD902F02CFB00232B6017
:102820000125164B11201D70FFF7DDFC2846FFF730
:1028300081F82046BDE8F840FFF722BA1A4619464B
:102840002046FFF741FAFF22C6E701230A4A29463C
:102850003B70156033702A462B462046FFF734FA4A
:10286000FF224FF496719DE79920002089200020D7
:102870002B0C002098200020FC1F00208820002026
:10288000FF2810B504461ED10F4BD3F8142193F83E
:102890001531302B0ED112F0FF1214D11146FFF773
:1028A00013FA20460121FFF727FA2046BDE8104021
:1028B000FFF7E6B922F07F42B2F5401F03D10023B3
:1028C00030221946EBE710BD740C002070B51D4690
:1028D0000C4B0E465B781446DB060DD50A4B187878
:1028E00001F07AFF022808BF3446E0B26B792BB1C1
:1028F000BDE8704001F0E2BFC0B2F7E7BDE870404C
:1029000002F024B89C410020D120002008B5054BDE
:1029100000211870FB20FFF705FABDE80840FB20F6
:10292000FFF7F2BE7220002010B5037C0446FA2B9C
:102930000AD0FB2B3CD0294B1B78BBB9FDF796FF87
:1029400080F00100C0B212E0254B1B7873B9234B15
:102950001B785BB9234B1B78DB0607D506F0D6F94D
:102960001D2805D1627C204B9AB91A70002010BD39
:1029700006F0CCF92028F5D0637CBBB1627E237EC3
:102980004AB9002BF2D0A37E002BEFD1FF221946CB
:1029900008E00122E9E7002BE8D1A37E002BE5D176
:1029A0001A46FF21072004F009FDDFE71A46EEE78B
:1029B0000B4B1B78012B0ED0033B012BD6D80B4BB6
:1029C0001B78002BD2D0437C002BCFD0837E027E9D
:1029D000417E5020E7E7FDF749FFC7E78E20002042
:1029E000722000209C410020862000209841002079
:1029F000014B186802F06EBF9C4100200B8813B594
:102A0000A3F5FC430A2B28D8DFE803F0062A435C31
:102A100027272727A9277400684B01201A780DF172
:102A20000701C2F3420352098DF80730FEF77CFA22
:102A30009DF80720042A10D81523D340D9070CD5B8
:102A4000FEF746FD01221146FEF788FC01225C4B91
:102A50001A7008F079F8FEF789FA002002B010BD6C
:102A6000564B01201A780DF10701C2F342035209B7
:102A70008DF80730FEF758FA9DF80720042AECD8A5
:102A80001523D340DA07E8D5FEF722FD0122022103
:102A9000DAE74A4B01201A780DF10701C2F342032D
:102AA00052098DF80730FEF73FFA9DF80720042AF7
:102AB000D3D81523D340DB07CFD5FEF709FD01227C
:102AC0000321C1E73D4B01201A780DF10701C2F344
:102AD000420352098DF80730FEF726FA9DF80730B9
:102AE000DA1E012A01D9002BB7D1FEF7F1FC012231
:102AF0000621A9E7334B187801F06EFE02280CBFBF
:102B000001220022304B1A701BD1002001F0C7FDBA
:102B1000002002F02AFA0022FF2311461A20FFF7B4
:102B2000D3F88120FFF772FB00211A20FFF7FAF893
:102B30000322FA211A20FFF70BF91A20FFF7A0F859
:102B40008BE7022001F0ABFD002002F00EFAFF231C
:102B50001A201A461946FFF7B7F88020E2E7174A0D
:102B60005178C1F3C00383F0010363F3C30111F093
:102B70000804164B517016D001221A800023FF2141
:102B80001A462420FFF7A0F800212420FFF7CAF8F6
:102B90000322FA212420FFF7DBF82420FFF770F846
:102BA000FFF726FF59E708221A80FF232420194641
:102BB0001A46FFF789F82146E7E700BF9C4100204D
:102BC00071200020D12000208C200020900D0020BA
:102BD000024B587800F00700704700BF9C4100206E
:102BE000024B5A7860F302025A7070479C410020F1
:102BF0000022174B10B51A700122164C164B1A7092
:102C00002368164A1A40164B13432360FF2323718F
:102C1000FEF75EFC237860F343032370FDF75AFE52
:102C2000FFF7E6FE0F4B187870B102280CD0002099
:102C300002F09BF9BDE810400B4B1A7842F080027D
:102C40001A70188802F03FBE01F029FDEFE700BFBF
:102C5000852000209C4100208E0D00200E80E0F099
:102C60003127040087200020B641002008B502F07B
:102C70002EFE044B186018B9BDE80840FFF7B8BF36
:102C800008BD00BF9C4100204FF40032014B9A6107
:102C9000704700BF000400400222014B9A61704758
:102CA000000400404FF080434FF080729A6107F0BB
:102CB000F9BE00004FF080434FF4807210B59A6166
:102CC0004FF4007280219A61174801220AF0DEFB5E
:102CD0004FF40003144C0122A361402120460AF066
:102CE000D5FB124B5B7813F0400316D04023002233
:102CF000A3610F4B1A70FEF7EBFB0446FEF7E8FBEF
:102D0000002201462046FEF729FB07F0CCFE07F023
:102D10001BFFBDE81040FEF729B94FF480020249BD
:102D20008A61044A1370E6E7000400409C410020D9
:102D30008E0D0020852000200120704738B5134DEE
:102D4000134C2868C8B107F043FF632815D97020D9
:102D5000FFF749FA5520FFF746FA5720FFF743FAE5
:102D60000022217811F00E0F0CBF01201046C1F394
:102D70004201FEF7F3FA00232B6021780020BDE822
:102D800038404A09C1F34201FEF78CB99C2000206B
:102D90009C4100208C4B73B51880A0F5FC400C467C
:102DA0000A2800F20E81DFE810F034007200930070
:102DB000B300D7000C010C010C0114000C0114002D
:102DC000824C207806F036FC00232370002002B0ED
:102DD00070BD4B79002BF3D0FEF77AFB0446FEF76B
:102DE00077FB844209D0FEF773FB0446FEF770FBC5
:102DF000002201462046FEF7B1FA744C2378002BDE
:102E0000E4D140F6B830704A714906F007FC2070F2
:102E1000DCE7704B01201A780DF10701C2F3420381
:102E200052098DF80730FEF77FF89DF80720042A35
:102E300026D81523D340D90722D56679634D002EB5
:102E400000F08580FEF744FB012805D0FEF740FB2B
:102E500000220121FEF782FA2B7833B940F6B83010
:102E6000594A5B4906F0DAFB2870637943B107F0F1
:102E70003DFE0022584B1A7007F066FEFEF776F80A
:102E8000FF20FFF7B0F90022544B1A709EE7514B18
:102E900001201A780DF10701C2F3420352098DF89F
:102EA0000730FEF741F89DF80720042AE8D81523DB
:102EB000D340DA07E4D56679444D002E47D0FEF7BB
:102EC00007FB0228C8D0FEF703FB00220221C1E75E
:102ED000404B01201A780DF10701C2F34203520959
:102EE0008DF80730FEF720F89DF80720042AC7D890
:102EF0001523D340DB07C3D56679344D3EB3FEF7C7
:102F0000E7FA0328A8D0FEF7E3FA00220321A1E79D
:102F1000304B01201A780DF10701C2F34203520928
:102F20008DF80730FEF700F89DF80730DA1E012A09
:102F300001D9002BA4D16679244D46B1FEF7C8FA19
:102F4000062889D0FEF7C4FA0022062182E72878F5
:102F500006F070FB2E7088E71E4B01201A780DF1E9
:102F60000701C2F3420352098DF80730FDF7DCFF79
:102F70009DF80730DA1E012A01D9002B83D165792B
:102F8000124CCDB1FEF7A4FA28B1FEF7A1FA002247
:102F90001146FEF7E3F9237833B940F6B8300A4A10
:102FA0000B4906F03BFB207000220B4B1A7007F018
:102FB000CBFDFDF7DBFF66E7207806F03BFB2570D5
:102FC000F2E7012003E700BFF81F0020F71F0020F1
:102FD000FD2900089C41002071200020782000205D
:102FE000F8B504460D46FEF74BFF0378022B03D1DC
:102FF00007F0AAFDFDF7BAFF47F621039C421BD05C
:1030000015D845F2212224F00203934228D16F798A
:1030100097B9FDF72BFC78B11B4E337823B12946C5
:1030200020463770FDF72AFC0123337004E0A4F535
:10303000FC43123B032B13D8FDF718FC10B3A4F587
:10304000FC43123B032B1CD947F621039C4218D0AA
:1030500045F2212024F00204231A5842584110E07E
:10306000FDF704FC0028E7D0A4F5A443203B1F2B68
:10307000E2D96B79002BDFD029462046FDF7FEFB15
:103080000020F8BD0120FCE7984100201E3808B55B
:103090000B4627286DD8DFE800F0141B1F23272BD1
:1030A0002F33373B6C6C6C6C6C3F436C6C6C6C6C92
:1030B0006C6C6C6C6C6C474B4E5154575A5D606332
:1030C00066693A22BE211E20FFF700FC002008BDE1
:1030D0003B22BD211F20F7E73C22C1212020F3E73E
:1030E0003D22C2212120EFE73E2222201146EBE7BC
:1030F0003F2223201146E7E74022AC212420E3E7CA
:103100004122AE212520DFE74222AB212620DBE74A
:103110004322A8212720D7E74422AA212D20D3E744
:103120004522A9212E20CFE7B3223A210846CBE73A
:10313000B5223B21FAE7B1223C21F7E7B2223D213B
:10314000F4E7AF223E21F1E7AD223F21EEE7AC22CA
:103150004021EBE7AE224121E8E7AB224221E5E73F
:10316000A8224321E2E7AA224421DFE7A922452140
:10317000DCE70120ABE7000073B515465C000646AE
:10318000019107F0E1FC074B03221860064B01A9EF
:103190001E60064B06481D60064B1C600BF0ACF829
:1031A00002B070BD6C20002060200020682000204C
:1031B0005A20002064200020F7B5474B474D0F46AA
:1031C0002E7814461A70FEF783F9C6F3420686423B
:1031D00011D0FEF77DF92B7800F0070060F3430370
:1031E00013F00E0F2B7004D003289CBF60F347131D
:1031F0002B70FFF7FDFB062F6BD8DFE807F05704B5
:103200001C306A6A4400FF236CB100228DF806303E
:10321000ADF804200123C8220420019903B0BDE8C1
:10322000F040FFF7A9BF8DF806304FF4FA72012382
:10323000ADF80440F0E7FF234CB100228DF80630D2
:10324000ADF804200123C82203200199E6E78DF898
:1032500006304FF4FA720123ADF80440F4E7FF237F
:103260004CB100228DF80630ADF804200123C822AD
:1032700002200199D2E78DF806304FF4FA7201234B
:10328000ADF80440F4E74FF47F43ADF804303CB1AF
:103290000023C8228DF80630012318460199BDE7A6
:1032A00001234FF4FA728DF80640F6E74FF0FF3332
:1032B0004FF6FF728DF80630ADF8042001231CB1E3
:1032C000C82200200199A9E74FF4FA72204601991B
:1032D000A4E703B0F0BD00BF702000209C41002097
:1032E00010B5FEF7CDFD0378022B13D0FEF7F0F8F2
:1032F00018B90A4B1B78042B0AD0FEF7E9F80446EC
:10330000FEF7E6F8064B01461A782046FFF754FF11
:10331000012010BD01F085FA0020FAE79446002054
:103320007020002070B5164C2068D0B107F050FC1A
:10333000144B154D1B68984208D2144B18682B6823
:1033400013F0010313D11A46194614E007F0FCFBF1
:103350002B68206033B900232360FFF7C1FF0028EA
:10336000EBD170BD013B2B60002BE6D1F3E70849A0
:103370008B784A780978BDE8704004F01FB800BF28
:103380006C200020682000206420002060200020A5
:103390005A20002008B53023FF201A461946FEF7B0
:1033A00093FC0322FA21FF20FEF7D2FCFF20FEF758
:1033B00067FC012008BD00001F4B2DE9F0411B7880
:1033C0000BB300251D4F3E4600242846E1B202F013
:1033D000E7FD804660B1337853B94DB9012C14D163
:1033E0006020FEF700FF224605212846FEF721FF58
:1033F00001340F2C06F8018BE7D10135EDB2062D13
:1034000007F10F07DFD1BDE8F081022C06D1602063
:10341000FEF7E9FE012205211320E7E7032C06D180
:103420006020FEF7E0FE012205212720DEE7042CC4
:10343000DED1FEF713FFDBE78A200020002000200A
:103440004FF080431A692DE9F0411B69594CC2F3D2
:10345000C011594E2170120603F40041C3F3C0336A
:1034600033706CD500290CBF64256625534F38682E
:10347000002866D107F068FB38602846FEF7B3FEE7
:103480005320FEF7B0FE4E4FFFF796FF387801F05D
:10349000A3F900285BD0022859D0DFF8288198F8DA
:1034A00000307BB1484D286807F092FB4F2809D9BE
:1034B0004FF40002454B9A61002388F8003007F072
:1034C00043FB2860DFF8088198F800307BB1414D5C
:1034D000286807F07DFBC72809D94FF400023B4B51
:1034E0009A61002388F8003007F02EFB28603A4DDF
:1034F0002B7853B9387801F06FF902280CBF80207F
:103500008120FEF783FE01232B70FDF7E1FF334D91
:103510002B78834207D0FDF7DBFF2870FDF7D8FF3B
:10352000FF20FEF760FEFCF7FFFF30B905F0EEFB71
:103530001D280FD12A4B1B788BB1BDE8F081652582
:1035400094E707F045FBB0F57A7F93D89BE7254BCE
:103550001870A2E705F0DAFB2028EED1EAE7224B4B
:103560001A78002AE9D1214B1B78DB06E5D52578AE
:103570001F4C6DB1337843B11346FF221946072023
:1035800003F01CFF01232370D7E71A46FF21F6E75B
:10359000FEF77AFC03780F2BF4D8237833B91A4658
:1035A0001946BDE8F041072003F008BF2B462A4624
:1035B000FF21F6E79920002098200020F01F00202E
:1035C000D120002084200020802000200004004022
:1035D0008D0D00207C200020ED1F00202A0C0020F3
:1035E00072200020872000208E2000209C41002097
:1035F000862000202DE9F3410026FF27134D0544C6
:1036000000EB800044008DF800408DF801708DF8CB
:103610000270009815F8018B03F0CCF9C0F3072174
:10362000C0F307438DF804008DF805108DF80630BF
:10363000C2B2DBB24046C9B2013603F0BFFE052E6E
:1036400004F10A04DFD102B0BDE8F0812C0C0020A7
:1036500038B5FDF73DFF044670B924480578012DC3
:103660000AD14FF40032224B9A6107F0CDFD224679
:1036700021462846FDF772FE1E4C002021781C4D85
:103680004A09C1F34201FDF70DFD4FF080434FF4AD
:1036900080729A614FF4007240219A61144820228E
:1036A00009F0F4FE20228021114809F0EFFE0122EA
:1036B00080210F4809F0EAFE4FF400030122AB61BC
:1036C0004021284609F0E2FE637813F0400305D05C
:1036D00040230022AB61084B1A7038BD4FF48002C2
:1036E00003498A61054A1370F7E700BF944600203A
:1036F000000400409C4100208E0D00208520002009
:10370000F8B5002401270A4E00252046E9B202F050
:1037100047FC28B1052C03D115B901253770F4E712
:1037200001350F2DF1D10134E4B2062CECD1F8BDF6
:103730008A2000201A4B07B51B7873B3194B1B78EE
:10374000032B17D8DFE803F0022124274FF47F432F
:10375000ADF80430A0238DF80630019803F02AF963
:10376000C0F307238DF80000C0F307408DF8013047
:103770008DF802009DF802209DF800109DF80100D0
:1037800003B05DF804EB03F085BE4FF65573DFE739
:103790004FF6AA73DCE70023DAE703B000BD00BFF1
:1037A0008E2000208D2000200A4B9B7803F0070319
:1037B000032B0BD8DFE803F00C0206081123064A9E
:1037C000137070471E23FAE72A23F8E73723F6E73A
:1037D0000823F4E79C4100207920002038B5FFF74A
:1037E00045FA01224FF480714FF0804009F04EFEFF
:1037F0004FF080444FF48073A3614FF400333B4D8E
:103800000122AB612846022109F040FE2046002239
:10381000802109F03BFE204620224FF4004109F0B0
:1038200035FE28462022402109F030FE284620227D
:10383000802109F02BFE204601224FF4007109F08F
:1038400025FE4FF40073A361294CFDF783FD217819
:103850000022C1F342010120FDF780FD07F074F959
:10386000244BFF221860C821FA20FEF771FAFA20D3
:10387000FEF706FAFF22C821FB20FEF769FAFB20BB
:10388000FEF7FEF9FDF724FEFF20FEF7ACFC02F088
:10389000BBF8A078C0F3C100FCF7A4FF28460122C2
:1038A000802109F0F3FD4FF4000301222846AB61AB
:1038B000402109F0EBFD637813F0400115BF402271
:1038C0004FF480020021094815BFAA6182610A4AAB
:1038D0000A4A13F0080F11700CBF01220822084B8E
:1038E0001A80BDE83840FFF75FBF00BF000400400A
:1038F0009C4100209C2000208E0D0020852000206F
:10390000900D002008B502F03FF803F027FD01F00C
:10391000D7FF044B1880FFF73DFDBDE80840FFF7D7
:103920005DBF00BFB64100202DE9F04106460C46C0
:10393000FFF756FB002800F00F8121463046FFF7C5
:10394000A5FB002800F0088121463046FFF722FA47
:103950000746002800F00081B74B1B7823B147F6DB
:103960000E639E4240F0F880DFF8D08298F8003075
:1039700053B1637943B12C2E06D000221146104674
:1039800088F8002003F086FDAD4D2B7803F00E0380
:10399000002B40F0D380B6F5F84F00F0808100F2A4
:1039A000AB8045F202239E4200F0EA827BD87E2E55
:1039B0004DD87A2E40D82C2E00F082813846BDE8B2
:1039C000F081A6F5FC46053E182EF7D801A353F862
:1039D00026F000BF693F0008CD3B0008ED3D000820
:1039E000BD390008B13C0008BD3900089740000807
:1039F0005B3D0008A13D0008E53B00088F3C000846
:103A00005D3B0008913B000847400008D53F000897
:103A10000D4000082D400008BD390008BD390008E0
:103A2000BD390008BD390008E53C00080B3D000821
:103A3000293D00081B3C00087C3EE0206379022EF3
:103A400000F2F180DFE816F0080111011A01E72EFB
:103A500016D8E02EB2D9E13E062EAFD801A353F816
:103A600026F000BFD3410008BD39000865410008B9
:103A7000BD390008D3410008BD390008974100084E
:103A8000B6F5A44F9AD16379002B65D06D4B1878A9
:103A900000F0A2FE02285FD1002000F000FE00200E
:103AA00001F063FA58E047F213039E4200F0A3804E
:103AB000A6F5F046203EB3B20A2B3FF67FAF0A2EA2
:103AC0003FF67CAF01A353F826F000BF473D000846
:103AD000D9400008BD39000839410008BD39000847
:103AE000473F0008253F0008753E0008BD3E00081E
:103AF000053E0008393E000847F61D639E423FF62A
:103B00005DAF47F604639E423FF65BAF47F6034363
:103B10009E4200F0308247F616439E427FF44EAF3D
:103B20006279494B002A49D0484A1278002A0CBFD2
:103B3000292035201A7000F039FD0DE0FEF7A0F9BC
:103B40000378032B7FF427AF331FA02B04D9A6F1F2
:103B5000E003072B3FF61FAF00272FE7EB7803F0BA
:103B60000F030C2BF8D06379002BF5D0AB7803F062
:103B70000702032A08D8013262F30203AB70FFF791
:103B800013FEFEF735FFE7E7042AF8D00422F3E737
:103B9000EB7803F00F030C2BDED06379002BDBD026
:103BA000AB785F0703D1AB7823F00703E6E7DA1DB4
:103BB00062F302035E07AB70E1D1F4E71B78934236
:103BC0000CBF2920352000F007FDC5E76379002BE5
:103BD000C2D06B78C3F3001282F0010262F30413C7
:103BE0006B70CEE763791A4C002B00F0C78106F0AA
:103BF000ABFF2060B0E76379002B3FF4DFAE00231A
:103C000030211A46FF20FEF75FF80121FF20FEF762
:103C100073F8FF20FEF734F8D0E662790D4B02B15D
:103C200001221A7098E71BB100F0C0FC1B2082E74C
:103C300000F0D2FC1B20C6E78A2000208E20002046
:103C40009C410020D1200020F61F00208B20002066
:103C500090200020954100201BB100F0A7FC062019
:103C600069E700F0B9FC0620ADE71BB100F09EFC4F
:103C7000192060E700F0B0FC1920A4E71BB100F0A8
:103C800095FC092057E700F0A7FC09209BE7637922
:103C9000002B3FF493AE6220FEF7A5FA8EE663791F
:103CA000002B3FF48BAE01F0E8FD06F0A9FF85E69E
:103CB0006379002B3FF450AF012388F800304BE7C5
:103CC00098F80030002B3FF479AE6379002B3FF475
:103CD00043AFB24A13780133DBB2032B88BF002312
:103CE000137039E763794BB1FCF7C0FD30B9E220BE
:103CF00000F0E4FD2B2000F0E1FD5FE6E22000F0A3
:103D000025FE2B2000F022FE58E663793BB1FCF73C
:103D1000ADFD20B9E32000F0D1FD0B20EBE7E3205F
:103D200000F014FE0B20EDE763793BB1FCF79EFD3C
:103D300020B9E32000F0C2FD0720DCE7E32000F01B
:103D400005FE0720DEE76379002B3FF405AF2B78F3
:103D5000DA4362F300032B7013E76379904CEBB105
:103D60002178D9B96B78402243F040036B7001256C
:103D70008C4B1D708C4B9A618C4A107828B1117055
:103D8000FEF736FE01232370E6E680229A6106F0F4
:103D9000DBFE874B1860874B1D70F1E70023F2E7CD
:103DA0006379854EFBB13578EDB9802201247E4BD5
:103DB0009A61824B1C7006F0C7FE814B1860FF238E
:103DC00046201A461946FDF77FFF29464620FDF793
:103DD000A9FF0322FA214620FDF7BAFF4620FDF78E
:103DE0004FFF3470B8E600233370B5E66379002BDB
:103DF0003FF4B2AE2B78C3F3001282F0010262F3FB
:103E00000413A8E7FCF732FD054600287FF4A4AEB2
:103E10006379002B3FF4D2AD05F06CF8D6287FF61D
:103E2000CDAD29461120FDF77DFF0322FA21132095
:103E3000FDF78EFF1320EDE6FCF718FD00287FF458
:103E40008BAE6479002C7FF4B9AD05F053F85F2890
:103E50003FF6B4AD21461320FDF764FF0322FA219B
:103E60001120FDF775FF1120FDF70AFF372005F03F
:103E700039F871E6FCF7FAFC054600287FF46CAED1
:103E80006379002B3FF49AAD04F0AEFF10F0800F81
:103E90004C4C0ED029461220FDF744FF0322FA2194
:103EA0001520FDF755FF1520FDF7EAFEA023A370AE
:103EB00084E504F099FF2030A0707FE5FCF7D6FC84
:103EC000054600287FF448AE6379002B3FF476ADB9
:103ED00004F08AFF20281FD829461520FDF722FF6D
:103EE0000322FA211220FDF733FF1220FDF7C8FE4E
:103EF00006F050FC840703D50022324B9A705DE532
:103F0000C0F34004002320461A461946013403F04A
:103F100055FA972CF6D1EFE704F066FF294B2038CD
:103F200098704BE56379002B3FF416AE04F0EEFE7B
:103F3000022805D16B7823F020036B70FEF758FD43
:103F4000FCF7BEFD08E66379002B3FF405AE04F0F4
:103F5000DDFE022805D16B7823F020036B70FEF79D
:103F600047FDFCF78BFDF7E52B78174A13F00E039E
:103F700018BF6379B4E66379144C35E62360EBE54A
:103F80006379002B3FF4E8AD114B187800F024FC66
:103F900002283FF4E1AD02207FE500BF8D20002024
:103FA000F51F002085200020000400408E0D002019
:103FB0008020002084200020F41F00208D0D002090
:103FC0007C20002099410020944100209420002072
:103FD000D12000206379002B3FF4BEADA8780021EA
:103FE000C0F3C100FCF722FB0020AB7823F01803DC
:103FF000AB70FCF7EBFBFEF7FBFCA878C0F3C1004D
:10400000FCF706FC0020FEF781FCA5E56379002B98
:104010003FF4A2ADA8780021C0F3C100FCF706FB75
:104020000120AB7860F3C403AB70E2E76379002B47
:104030003FF492ADA8780021C0F3C100FCF7F6FA76
:104040000220AB78EEE76379002B3FF485AD04F0F6
:104050005DFE2E287FF480ADFCF708FC0446A878AE
:104060005E4DC0F3C1007CB9FCF7E6FB5C4B1C70F5
:1040700006F06AFD2246286021462046FCF786FBB2
:104080000320FEF743FC7CE5002401212C60FCF7B3
:10409000CDFA2046F5E76379002B3FF45DAD0122B0
:1040A0006B7823F040036B704E4B1A704FF4800214
:1040B0004D4B9A614D4B197811B100221A7060E591
:1040C000EB785A1C02F00F020C2A94BF62F3030330
:1040D00061F30303EB7054E56379002B3FF43CADCF
:1040E00004F014FE2E28424C22D1FCF7BFFB68B12D
:1040F000A878C0F3C100FCF769FBA8780021C0F3E1
:10410000C100FCF793FA0022354B1A702879FF287A
:1041100008BF0D2004F0F6FDFEF76AFC04F040FE37
:10412000C0F307232070C0F307406370A07013E54D
:104130003048FCF7F7FBEFE76379002B3FF40CAD59
:104140000120FCF769FC6B7843F020036B7004F0EE
:1041500027FE274BC0F307221870C0F307405A70A0
:1041600098700EE5244B187800F036FB0228234B9C
:104170002BD16179224A1B781170D9067FF51EACCC
:10418000FCF774FB00287FF419ACE3206379C3B11A
:1041900000F00CFA12E4184B187800F01DFB02280E
:1041A000164B12D1164A61791B781170DA067FF529
:1041B00005ACFCF75BFB00287FF400ACE7206379DB
:1041C000E5E700F009FAFFF7F9BB1B78DB063FF5DE
:1041D000F5AB62790A4B1A70FFF7F0BBA4410020DF
:1041E000984100208E0D0020000400408520002012
:1041F00099410020A0410020D1200020B64100209C
:104200008B20002010B5FDF763F958B1FDF738FE9B
:1042100003780D4C022B06D10123237006F094FC89
:104220000A4B186010BD2278094B5AB101221A704E
:10423000064B186806F0CCFCB0F5FA6FF2D90023F3
:104240002370EFE71A70EDE778200020742000203B
:10425000732000202DE9F043A5B007468846FCF7FF
:1042600063F9D0B18A228F4901A80AF045F80025E8
:104270008D4E01AC2278607802EB4202B1188B7847
:10428000B25C4978013503F099F8452D04F1020438
:10429000F0D1012025B0BDE8F083844E3578CDB152
:1042A000834C2378412B00F2FA800022814D104686
:1042B000114603F0EFF8286806F08AFC322805D989
:1042C00006F042FC23782860013323702078FFF742
:1042D00091F9DEE78A22734901A80AF00DF8DFF8A8
:1042E000C89101AC2278607802EB420209EB02012E
:1042F0008B7819F802204978013503F05FF8452DD5
:1043000004F10204EED16C4C206848B106F060FC68
:1043100040F6B833984203D9FFF7F4FA002323603C
:10432000664D674C286858B106F052FC42F2107393
:10433000984205D9237883F00103237000232B6072
:10434000604B1B78002B40F08B80FCF78FFA58BB3A
:104350005D4B1B78042B22D106F01CFA5B4DC0F399
:1043600040002B7898420FD006F014FAC0F34000BA
:10437000287006F00FFA8107C0F3400304D41A46F0
:104380001946062003F01AF806F004FA82070BD546
:10439000FF2306201A46194603F010F804E0FDF743
:1043A0006FFD0378022BD7D0494DDFF8289128788C
:1043B00000F012FA02280ED0474A99F8003010781F
:1043C000C3F3001188420B4605D0117019B90A4693
:1043D000082002F0F3FF99F80030DB060AD52878B0
:1043E00000F0FAF9022805D0FF2308201A461946E2
:1043F00002F0E4FFFCF798F890BB04F087FC1F285C
:104400002ED004F083FC2C282AD004F07FFC242832
:1044100026D004F07BFC252822D004F077FC262847
:104420001ED004F073FC27281AD004F06FFC282853
:1044300016D004F06BFC292812D004F067FC2A285F
:104440000ED004F063FC2B280AD0244B9A78D8783D
:10445000234B02F00702197800F00F00FCF794FBE1
:1044600023782BB1FF2309201A46194602F0A6FF34
:10447000FFF7C8FEFDF72CF810B11A4B1B780BB9EB
:10448000FEF750FF41463846FDF77CFCFFF752F936
:10449000FCF738FB3378002B3FF4FBAE00E700233A
:1044A0003370F6E687EF0008054200208C0D0020EF
:1044B000EC1F0020E81F0020942000209020002006
:1044C0008A2000209441002094460020290C0020DE
:1044D000D1200020B6410020280C00209C41002063
:1044E000792000207320002004280DD805290BD83E
:1044F0000E2A09D85A23C1EB011103FB0011034B0B
:10450000114433F8110070470120704738F6000855
:10451000042808D839B9054B82F0010202EB4002A9
:1045200033F8120070470120704700BF54F30008B1
:10453000A0F58073B3F5F85F10B52DD210F4805F4D
:1045400000F40074C0F3002300F4806100F4006004
:1045500013D01B0143F02002002C18BF134643F078
:104560004002D2B2002918BF134663F07F02D2B2D4
:10457000002818BF1346184610BD43F00202D2B2FD
:10458000002C18BF134643F00402D2B2002918BF12
:10459000134643F00802EAE70023ECE710B50C46A7
:1045A000FFF7C6FF2346BDE810401847A0F1E0031F
:1045B000072B10B5044600D940B920460449FFF73F
:1045C000EDFFE0B2BDE8104000F078B90149F6E730
:1045D000094A0008214E000810B50446C0B200F098
:1045E000B5F9A4F1E003072B00D92CB90349204603
:1045F000BDE81040FFF7D2BF0149F8E71B4A0008A9
:10460000334E00080120704708B5FFF7FBFF08BDD7
:10461000704708B5FFF7FCFF08BD000013B5104B4D
:10462000CDE900011B78B3B99DF8053073B16AB1CB
:1046300000F046FD04460146009800F005FD2046C6
:10464000009902B0BDE8104001F088BB009800F06E
:1046500019FD0446F3E7009800F032FD0099F0E7F9
:10466000A8200020034610B400885C880A4640EA6F
:104670000440998810BCFFF7D1BF10B50446012152
:10468000FFF7F0FF2146FFF7BFFF10BD10B504464E
:104690000021FFF7E7FF2146FFF7BBFF10BD10B574
:1046A00001248440E0B201F007F9E0B2BDE8104017
:1046B00000F02FBC0120704708B5FFF7FBFF08BDD5
:1046C00010B5044600F0D6FB2046FFF7F5FFBDE825
:1046D000104046F2A81007F030BC08B50120FFF7E3
:1046E000EFFFBDE8084006F08BBA08B50020FFF7E1
:1046F000E7FFBDE8084006F0A9BA38B50121054634
:10470000FFF7B0FF2946044605F0CEFE002840D052
:1047100029462046FFF708F9D8B32946204605F078
:10472000CFFDB0B32946204605F032F988B32946BB
:10473000204605F007F960B32946204604F046FC00
:1047400038B32946204605F007FE10B36B797BB1DC
:1047500047F65A439C4223D00ED847F601439C4269
:104760001BD047F603439C4215D0B4F5F84F0ED04A
:104770002846FDF79FF80DE047F65B439C4212D0B8
:1047800047F65C439C42F3D101F066F8F0E7FFF78F
:10479000A4FF002038BD01F070F8FFF7A6FFF8E78E
:1047A00001F064F8E4E701F064F8E1E708B5FEF72A
:1047B00079FA03F079FE00F02FF8BDE808400120F7
:1047C00004F02ABA08B500F02CF8002004F024FA0E
:1047D000BDE80840FEF76EBA020906BF134602465E
:1047E000042391081CBF0A46023303EB5200C0B2F7
:1047F000704701207047704738B50546FFF7F9FF4D
:10480000044610B12846FFF7F6FF204638BD704732
:1048100008B5FFF7F1FF08BD08B50020FFF7F8FF66
:1048200008BD08B505F0AEFFFFF7F2FF08BD0000B8
:1048300010B505F0A7FF074B04461A78824207D04F
:10484000187006F081F9044B18602046FFF7E0FF6E
:1048500010BD00BFA0200020A42000201FB5CDE97E
:1048600000019DF805300BB100F0F6FEDDE9000116
:104870000023ADF80C10C9B2ADF80E30029029B982
:10488000DDE9020100F046FE04B010BD02A8FFF70A
:10489000F4FE0028F4D1F7E70379012B02D1008858
:1048A00000F030BC704708B529B105F0CFF9BDE87C
:1048B000084005F0A9BA05F01BFAF8E710B5044660
:1048C000002840D0031FDBB2A02B0ED805F0E0FF7C
:1048D00020B1204606F062F800F056FF204606F0B0
:1048E00043F8BDE8104000F04FBF00F12003DBB2F9
:1048F000072B07D800F007040120A040C0B200F049
:1049000085FEEEE700F15B03DBB2022B05D8BDE8C4
:104910001040243880B205F05DBF00F15803DBB2CF
:104920001A2B06D8BDE81040074A32F8130005F0EC
:104930006BBF3334E4B2122C05D805F087F9BDE81B
:10494000104005F061BA10BDBCF9000808B5034677
:10495000A0B3021FD2B2A02A05D806F01FF8BDE806
:10496000084000F011BF00F12002D2B2072A07D898
:1049700000F0070301209840C0B200F04FFEEEE7C0
:1049800000F15B02D2B2022A04D8BDE80840002040
:1049900005F020BF00F15802D2B21A2A04D8BDE8AF
:1049A0000840002005F030BF3333DBB2122B05D8AE
:1049B00005F09EF9BDE8084005F026BA08BD0000E4
:1049C00038B50C460546FFF779FF8CB140F2E73069
:1049D0000021DFF820C04FF47A720023E4FB0C01C1
:1049E000FBF704FC07F0A9FA2846FFF7AFFF38BD34
:1049F0000120F7E7A086010008B539280CBF502137
:104A00000021FFF7DDFF08BD08B528B100F0FEFD6D
:104A1000BDE8084000F0B8BE08BD08B528B100F0F8
:104A2000FDFDBDE8084000F0AFBE08BD2DE9F8432C
:104A3000877981460C46457900F0D8FDC7F3031706
:104A4000064608B32E46FDB1C4F3072303F0F00277
:104A5000402A0CD0E1B201F12002D2B2072A25D9B6
:104A600003F0E003202B02D101291FD907B3A54B86
:104A70005E7816F0040607D0022000F0BDFE00F0BC
:104A8000B5FD80F00106F6B2C4F303330B2B3ED81C
:104A9000DFE813F01000100055005500B000C7000B
:104AA0003D003D00CC0026013A013A010026EBE72B
:104AB0003E46E9E7C4F30327C4F307223B010F2A6C
:104AC00088BF1F46E4B285B157B104F12003DBB2C1
:104AD000072B384600D92CB900F098FD00F054FEA1
:104AE00020464DE000F0A8FDF8E72046FFF72EFF36
:104AF0006FB104F12003DBB2072B384600D914B99B
:104B000000F08CFD01E000F09FFD00F03DFE002E66
:104B100000F0528100F062FD10F0010040F04C8185
:104B200089F8050000F054FD00F026FA484600F030
:104B300059F900F04DFDBDE8F84300F029BAC4F37F
:104B40000328C4F3072303F0F0034FEA0812E4B28A
:104B5000202B18BF90462CB1012C34D0002D3CD016
:104B6000DFB1BDE7674B5B78590714D45DB1B8F18D
:104B7000000F04D0404600F049FD00F005FE002083
:104B8000FFF79CFEC3E72846FFF7E0FEB8F1000FF1
:104B9000BDD04046B4E755B11FB94046FFF734FFDA
:104BA000B5E7012FB3D1404600F076FDAFE7002F07
:104BB000ADD14046FFF731FF404600F07BFD404657
:104BC00000F056FDA3E715B1052FA0D8E5E7042FA7
:104BD0009DD84046FFF721FF99E7002FF9D0392CE7
:104BE0000CBF4FF4FA50012007F0A7F92046FFF759
:104BF000ADFE8CE714F4406FC4F3812307D0012B82
:104C000085D165B1C4F3090005F0FEFD7FE725B14C
:104C1000C4F3090005F0DEFD79E72846FAE72846E7
:104C2000F2E72946E0B2FFF73EFE70E714F4407F5A
:104C300029D1D5B90F23C4F342129200D2B29340C6
:104C4000DB4314F01000DBB218BF184604F00F016C
:104C50009140C4F381240843022CC0B20DD0032C30
:104C60000ED0012C06D000F05FF905F08BFDFFF7A8
:104C7000CFFD4CE700F050F9F7E700F05DF9F4E7FD
:104C800000F047F9F1E7C4F30122EDB1D207ECD50A
:104C90000F23C4F342129200D2B29340DB4314F0CC
:104CA0001000DBB218BF184604F00F019140C4F3A6
:104CB00081240843022CC0B20CD0032C0DD0012C4F
:104CC00005D000F083F9D0E7012ACED9E0E700F063
:104CD00075F9CAE700F082F9C7E700F03BF9C4E7CD
:104CE000E7B2C4F3032435B1204600F045F9384655
:104CF000FFF78AFEB9E73846FFF78FFE204600F03F
:104D000047F9B2E7B64100205FFA84F8A8F1F00352
:104D1000042B38D8DFE803F003210D141D0035B152
:104D2000042FA2D8C4F3042000F03CF99DE7052F1E
:104D3000F7E7C4F30420002DE1D100F01DF994E75A
:104D400025B1C4F3042000F010F98EE700F00AF951
:104D50008BE71A4B5B785B0704D4C4F30420002D67
:104D6000CDD0EAE72DB10321C4F3042000F022FDE9
:104D70007BE7012000F040FD012F7FF676AF022097
:104D800000F03AFD71E73DB11FB14046FFF796FDD7
:104D90006BE7C4F30420D0E75FB1B8F1390F0CBF63
:104DA0004FF4FA50012007F0C8F84046FFF7CEFD57
:104DB0005BE7C4F30420A2E7BDE8F883B641002016
:104DC00038B501880446407900F0A8F9054600F09E
:104DD0000DF900F09DF829462046BDE83840FFF760
:104DE00025BE0000037910B50446B3B1FFF785FC7A
:104DF00068B900F0FBFB80B1637973B1074B5B7856
:104E00005B070AD5BDE81040022000F0F5BC204643
:104E1000FFF7D6FF2046FFF739FC10BDB641002052
:104E200008B528B100F008FCBDE8084000F0ACBCB3
:104E300008BD08B528B100F007FCBDE8084000F047
:104E4000A3BC08BD08B5002005F0C4FC002005F097
:104E5000DBFC00F001FC00F097FC04F0F3FFBDE880
:104E6000084004F0D1BF08B505F0B2FDBDE8084028
:104E7000FFF7E8BF08B500F0D9FBBDE80840FFF731
:104E8000F2BFC0F30333062BC2B213D094BF0E336C
:104E9000063303F00F03012B13D8F02A13D004D8E4
:104EA000E72A8CBF002001207047A2F1F40358428A
:104EB00058417047F12A18BFE72A94BF012000200B
:104EC0007047002070470120704708B5037933B15F
:104ED000008800F017F9BDE80840FFF7D2BF184678
:104EE00008BD82B0CDE9000102B0704782B0CDE9C3
:104EF000000102B07047704708B5FFF7FCFF08BD1E
:104F000008B5FFF7F9FF014B187008BDD12000204C
:104F10007047FFF7F5BF0000024B1B781843FFF7FF
:104F2000EFBF00BFD1200020024B1B781840FFF7D5
:104F3000E7BF00BFD1200020024B1B785840FFF78D
:104F4000DFBF00BFD1200020704708B5FFF7FCFF8E
:104F500008BD000008B5FFF7F8FF014B187008BD49
:104F6000D02000200020FFF7F5BF012303FA00F056
:104F7000C0B2FFF7EFBF0000012303FA00F0034BBC
:104F80001B781843C0B2FFF7E5BF00BFD020002058
:104F90000123034A8340107820EA0300FFF7DABFB9
:104FA000D0200020012303FA00F0034B1B78584067
:104FB000C0B2FFF7CFBF00BFD0200020024B1B784C
:104FC0001843FFF7C7BF00BFD0200020024B1B785B
:104FD0001840FFF7BFBF00BFD0200020024B1B7856
:104FE0005840FFF7B7BF00BFD0200020704701F046
:104FF0000703C90801EB410130B501250A4400212E
:105000009D40013A12F8014F20FA01F343F30003E7
:1050100063402B4001315C4003291470F2D130BD54
:10502000002210B500F00704C00800EB4000014466
:1050300010468B5CE34003F00103934001321843B8
:10504000032AC0B2F5D110BD0246C0F30723052BD9
:10505000084682B0D1B209D80E290DD8C3EB03138C
:105060001944064A89B202B0FFF7C1BF0433DBB26C
:10507000012B01D8024AF6E702B07047AC200020AD
:10508000A9200020C0F30723052B82B0C0B209D8A5
:105090000E280DD8C3EB03131844074980B202B0A1
:1050A000FFF7BEBF0433DBB2012B01D80349F6E79B
:1050B000002002B0704700BFAC200020A9200020D3
:1050C00073B504240D4BADF804001D780C4B1B7810
:1050D0001D43EDB245FA04F3DB0705D4013CF9D2D8
:1050E0000026304602B070BDE6B23046019900F0AD
:1050F00052FE80B20128F1D0F3E700BFD02000209B
:10510000D120002007B5ADF804000198FFF7D8FFC3
:10511000019903B05DF804EB00F03DBE13B5104BF0
:10512000ADF804101B782BB1019802B0BDE8104017
:10513000FFF7E8BF70B10198FFF7C2FF04460146D0
:105140000198FFF781FF2046019902B0BDE81040A9
:1051500000F021BE0198FFF795FF0446F3E700BF7A
:10516000A820002010B5012404FA02F204FA01F18B
:105170001143CAB20140914204FA03F406BF20432E
:10518000C0B2A04310BD000008B513460A46014650
:1051900003480078FFF7E6FFBDE80840FFF7DABEF6
:1051A000D0200020F8B50C4B0C4E1C780C4D3378F9
:1051B000A34200D1F8BD05EBC40335F834005F8885
:1051C0009A88D98840EA074042EA01410134FFF752
:1051D0008DFE04F00704EAE7D2200020D32000204F
:1051E000D420002010B4064B5C8818889A88D9888F
:1051F00040EA044042EA014110BCFFF777BE00BF1D
:10520000142100201C49F8B58B790F2B0AD84B7953
:1052100043B11A4B1A4A1B7815784E780F78194CFF
:10522000AB4200D1F8BD04EBC300027902B342786F
:10523000B2421DD114F83320BA4219D14279BAB919
:105240004288B1F802C0A2EB0C0292B2C72A0FD872
:1052500001228B7962F307138B71837962F3071351
:1052600083710548FFF7BEFDBDE8F840FFF79ABF20
:10527000013303F00703D3E714210020D2200020DC
:10528000D3200020D4200020F0B50D4B0D4C1B780E
:1052900026780D4CB34201D10020F0BD04EBC305CC
:1052A0006F788F4206D114F83370874202D16D793E
:1052B000954203D1013303F00703EBE70120ECE74C
:1052C000D2200020D3200020D42000202DE9FF4749
:1052D00005468F4C06220146684609F00DF82379F1
:1052E0006F792A79C3B9002A00F0D480002F00F02A
:1052F00006812846FFF7E9FD002800F0008108221A
:105300002946204608F0F8FF2046FFF7C5FAFFF7C8
:1053100079FFFFF767FFBDE0B5F802A06388667903
:10532000AAEB030395F800809BB2002E00F0B48036
:10533000C72B00F28A80002A00F0AC80A379627843
:105340000F2B697851D8914214D12278424511D15E
:10535000002F45D1012262F30713A371FFF742FF2B
:105360002046FFF73FFDA379AB710024204604B02F
:10537000BDE8F087A7BB3A464046FFF785FF4046A9
:10538000FFF782FF04460028EFD10098FFF7BAFE2E
:10539000C0F30332032AC3B208D8012A10D910F48B
:1053A000706F12D0AA790F2A0FD8DFE7063202F009
:1053B0000F02012A0ED92846FFF714FD3446D5E71F
:1053C00010F4706F01D0002BD0D02033DBB2072B4C
:1053D000CCD9F0E7EF2BC9D90F33DBB2022BF7E7BB
:1053E000A37943F00103A371BFE791420DD1227865
:1053F00042450AD14FB92846AB71FFF7F3FC0822AA
:105400002946204608F078FF83E72846FFF75DFD30
:10541000002874D0002F72D0A3791F2B0FD92288B7
:1054200002A8ADF808202279ADF80AA08DF80C206A
:1054300000228DF80E308DF80D20FFF7D3FC0822E6
:105440002946334808F058FF61E7A3790F2B0ED89F
:10545000DDE90001FFF745FD2046FFF7C3FC082208
:105460000021204608F0FBFEFFF7BCFE7DE78AB175
:1054700061786A789142C8D122784245C5D1002F1F
:10548000C3D12846AB71FFF7ADFC08223946204650
:1054900008F0E5FE012469E7C72B34D8002AF9D0CB
:1054A0006FB362786B789A4220D1237843451DD13F
:1054B000A379DA0714D40F2B12D9AB7103F0F003E0
:1054C000F02B06D0AB79C3F30312013262F307135A
:1054D000AB712846FFF786FC082229460C4891E765
:1054E000082229460A4808F007FFD3E72846FFF7B5
:1054F000ECFC0028A3D1A37943F00103A371284653
:10550000FFF770FCC6E7DDE90001FFF7EAFCA6E75C
:1055100014210020F0B585B0CDE900016846FFF701
:10552000D5FE274E07469DF80430264D58B11BB1D5
:10553000DDE90001FFF7DAFC234C28783378834259
:1055400024D105B0F0BDDDE90001CDE90201002B59
:10555000F2D033782A785C1C04F0070494420BD014
:10556000082219480DEB020100EBC30008F0C4FE4D
:105570003470FFF717FEDFE7FFF77CFC082239469F
:10558000124837702F7008F06AFED5E704EBC000B0
:10559000FFF79CFE0028D4D02B7834F8330004EBBE
:1055A000C3035F889A88D98840EA074042EA0141EC
:1055B000FFF79CFC2B78013303F007032B70BCE74B
:1055C000D3200020D2200020D4200020142100204D
:1055D000014B1878C008704744210020024B18780E
:1055E00000F00700704700BF44210020034B1878EB
:1055F00010F0070018BF0120704700BF44210020B1
:10560000014B1878704700BF70210020024B1A78B8
:1056100010431870704700BF70210020024A1378B1
:1056200023EA000313707047702100200022014B11
:105630001A70704770210020024B1A7810431870BE
:10564000704700BF6F210020024A137823EA00034D
:10565000137070476F2100200022014B1A707047B1
:105660006F210020704708B5FFF7FCFF08BD000060
:1056700008B5054A1378034204D023EA00001070ED
:10568000FFF7F1FF08BD00BF45210020704708B5B6
:10569000FFF7FCFF08BD000010B5054A137830EA9B
:1056A000030403D003431370FFF7F1FF10BD00BFE5
:1056B0004621002008B5054A1378034204D023EAA6
:1056C00000001070FFF7E3FF08BD00BF4621002077
:1056D00008B5044B1A781AB100201870FFF7D7FFED
:1056E00008BD00BF4621002010B5084B1C78084BB0
:1056F0001B781C43074BE4B21B782BB11C4305F00D
:105700009FF808B1FFF7E4FF204610BD702100208C
:105710006F2100204621002038B50B4C2568FFF78B
:10572000E3FF2870246808222046084908F06EFD2F
:1057300048B121460822054808F0DEFD2046BDE8B4
:10574000384005F02BB838BDB80F00203C210020B0
:1057500038B50B4C2568FFF7C7FF68702468202216
:105760002046084908F052FD48B12146202205484C
:1057700008F0C2FD2046BDE8384005F017B838BD36
:10578000B40F00201C210020054B1B7833B1054BC2
:1057900093F90030002B01DAFFF7DABFFFF7BCBF47
:1057A000DC0F0020B6410020704708B5FFF7FCFF72
:1057B00008BD0000094A10B5527853070AD5084CB5
:1057C00041EAC0012170FFF7D7FB2078C008FFF73E
:1057D000ECFF10BDBDE81040FFF7CEBBB641002086
:1057E00044210020002008B5024B1870FFF7DDFFB0
:1057F00008BD00BF4421002008B50A4A137823EAF7
:105800000000107042070CD198420AD0064B5B781A
:105810005B0706D5C008FFF7BBFBBDE80840FFF7F4
:10582000E1BF08BD44210020B6410020094A08B567
:105830005378C3F3800181420AD060F3820353702E
:10584000108800F040F8BDE808400220FFF7D4BF00
:1058500008BD00BFB6410020034B587880F004001B
:10586000C0F38000FFF7E2BFB64100200120FFF740
:10587000DDBF0020FFF7DABF704708B5002000F059
:1058800065FDBDE808404FF6FF71002000F040BD07
:1058900008B5002000F0DAFC4FF6E563984203D12A
:1058A000BDE8084004F098BD002008BD022000F0CB
:1058B000BFBC032000F0BCBC0146032000F01ABDB1
:1058C000042000F0C3BC0146042000F021BD0F20DD
:1058D00000F0CABC01460F2000F028BD08B500202A
:1058E000FFF7F8FFFFF7C8FF08BD01460E2000F0E4
:1058F00001BD000007B5002000F028FD4FF6E5616E
:10590000002000F005FD0021022000F0F3FC012141
:105910001C4B0320197000F0EDFC4FF4A051042043
:1059200000F0F6FC0021062000F0E4FC0021072036
:1059300000F0E0FC0021082000F0F8FC002123200A
:1059400000F0D8FC00210C2000F0D4FC00210D2038
:1059500000F0D0FC002300226846CDE90023172187
:10596000082200F0ADFC00211F2000F0DFFCFAF758
:10597000B1FF002004F048FD04F075FDFFF7AEFF15
:1059800003B000BDD1200020FFF7B4BF73B505F010
:1059900013F90A4C0546238883420DD00026ADF842
:1059A000006005F009F9ADF80460ADF80200DDE92A
:1059B0000001FEF753FF258002B070BD7221002068
:1059C000014B186805F004B97C21002008B505F0EA
:1059D000BBF8024B1860024B186008BD7C21002008
:1059E0007821002008B505F0AFF8024B1860024B93
:1059F000186008BD7C21002074210020704770478A
:105A000008B5FFF7FCFF08BD704701207047000094
:105A100008B5054800F0B4FA00F096FCFFF7EEFF79
:105A2000FFF7EEFF08BD00BF795F00080120704757
:105A300008B5FFF7FBFF08BD08B5FBF777FEFDF7DC
:105A4000FFFC08BD08B5FFF723FF08B9FFF79CFF6F
:105A5000FFF72CFF084B1870FFF732FF074B188039
:105A600003F04EFDFFF725FFFFF753FA044B1878BC
:105A7000BDE80840FFF769BA80210020B641002048
:105A8000D020002008B505F05DF804F0FCFC03F020
:105A900037FB00F039FBFFF7D5FFFEF7B8FE03F048
:105AA00095F8054B1A7842F080021A701888FFF7B3
:105AB0000AFFFDF793FE08BDB64100202DE9F04F27
:105AC00085B0FFF7A2FF78B9FFF760FF02F0ECFCAA
:105AD00003F06CFB08B1FFF785FF04F0DBF905B0BC
